:020000040800F2
:10000000F04B002065020008ED130008F71200080D
:10001000E9130008E10300084D1500080000000086
:10002000000000000000000000000000CD010008FA
:10003000E503000800000000110200081914000880
:100040007F0200087F0200087F0200087F0200088C
:100050007F0200087F0200087F0200087F0200087C
:100060007F0200087F0200087F0200087F0200086C
:100070007F0200087F0200087F0200087F0200085C
:100080007F0200087F0200087F0200087F0200084C
:100090007F0200087F0200087F0200087F0200083C
:1000A0007F0200087F0200087F0200087F0200082C
:1000B0007F0200087F0200087F0200087F0200081C
:1000C0007F0200087F0200087F0200087F0200080C
:1000D0007F0200087F0200087F0200087F020008FC
:1000E0007F0200087F0200087F0200087F020008EC
:1000F0007F0200087F0200087F0200087F020008DC
:100100007F0200087F0200087F0200087F020008CB
:100110007F0200087F020008911400087F02000897
:100120007F0200087F0200087F0200087F020008AB
:1001300000F002F800F03AF80AA090E8000C8244BF
:100140008344AAF10107DA4501D100F02FF8AFF29C
:10015000090EBAE80F0013F0010F18BFFB1A43F0A5
:1001600001031847B41F0000D41F0000103A24BF39
:1001700078C878C1FAD8520724BF30C830C144BF0C
:1001800004680C607047000000230024002500264E
:10019000103A28BF78C1FBD8520728BF30C148BFEA
:1001A0000B6070471FB51FBD10B510BD00F0A4F85F
:1001B0001146FFF7F7FF01F0E7F900F0C2F803B4CA
:1001C000FFF7F2FF03BC00F0C9F80000224B1968EA
:1001D0000868B0E8F00F80F30988BFF36F8F4FF025
:1001E000000080F311884EF00D0E704700000000F3
:1001F00006480068006880F3088862B661B6BFF3FD
:100200004F8FBFF36F8F00DF00BF00BF08ED00E02E
:10021000EFF30980BFF36F8F0F4B1A6820E9F00FDF
:10022000106008B54FF0BF0080F31188BFF34F8F07
:10023000BFF36F8F01F03CFD4FF0000080F3118899
:10024000BDE8084019680868B0E8F00F80F3098835
:10025000BFF36F8F704700BF1C000020EFF30580D5
:10026000704700000948804709480047FEE7FEE75D
:10027000FEE7FEE7FEE7FEE7FEE7FEE7FEE7FEE756
:1002800004480549054A064B704700008F140008D2
:1002900031010008F0450020F04B0020F04700201D
:1002A000F04700204FF0000200B5134694469646F2
:1002B000203922BFA0E80C50A0E80C50B1F1200179
:1002C000BFF4F7AF090728BFA0E80C5048BF0CC027
:1002D0005DF804EB890028BF40F8042B08BF704785
:1002E00048BF20F8022B11F0804F18BF00F8012BF7
:1002F0007047704770477047754600F02BF8AE4660
:1003000005006946534620F00700854618B020B521
:10031000FFF7B6FFBDE820404FF000064FF00007A2
:100320004FF000084FF0000B21F00701AC46ACE89D
:10033000C009ACE8C009ACE8C009ACE8C0098D460A
:10034000704710B50446AFF300802046BDE810406A
:10035000FFF735BF004870478C4500200149182041
:10036000ABBEFEE726000200704700001CB5104837
:10037000012100238022CDE900100EA10F4801F0D9
:10038000FBFC0F48012100238022CDE900100DA1C4
:100390000E4801F0F1FC0E48012100238022CDE936
:1003A00000100CA10D4801F0E7FC01F043FC1CBD5E
:1003B000100000207461736B31000000191B0008ED
:1003C000140000207461736B320000002B1B0008C6
:1003D000180000207461736B330000003D1B00089F
:1003E00000BFFEE7704772B600BFFEE770B5044677
:1003F00000F0C8F906462546681C10B1044800788C
:10040000054400BF00F0BEF9801BA842FAD370BDBE
:10041000080000202DE9F847024600239C467BE1B6
:100420004FF0010808FA03F4D1F8008008EA04004C
:10043000A0427DD1DFF8F4A2D1F80480A8EB0A092C
:10044000D0453AD014DCB8F1030F50D009DCB8F134
:10045000000F31D0B8F1010F1CD0B8F1020F49D113
:1004600020E0B8F1110F18D0B8F1120F42D11EE000
:10047000B9F5881F25D006DCB9F5803F20D0B9F545
:10048000801F37D11AE0B9F5001F18D0B9F5041F45
:1004900030D117E0D1F80CC02DE0D1F80C8008F174
:1004A000040C28E0D1F80C8008F1080C23E0D1F806
:1004B0000C8008F10C0C1EE000BF00BF00BF00BFA5
:1004C00000BF00BFD1F80880B8F1000F02D14FF093
:1004D000040C0BE0D1F80880B8F1010F03D14FF004
:1004E000080C146102E04FF0080C546103E04FF077
:1004F000000C00E000BF00BFFF2801D8904601E0DB
:1005000002F104084646FF2802D84FEA830803E0B8
:10051000A3F108084FEA88084746D6F800804FF054
:100520000F0909FA07F928EA09080CFA07F900E0A7
:100530007AE048EA0908C6F80080D1F8048008F09B
:100540008058B8F1805F6FD100BFDFF8E481D8F840
:10055000188048F00108DFF8D891C9F81880C8461B
:10056000D8F8188008F00108CDF8008000BF00BF5F
:100570004FEAB9384FEA930958F829504FEA83787F
:100580004FEA18794FF00F0808FA09F825EA08052C
:10059000DFF8A081424502D14FF0000824E0DFF8E7
:1005A0009881424502D14FF001081DE0DFF88C81AF
:1005B000424502D14FF0020816E0DFF8848142453F
:1005C00002D14FF003080FE0DFF87881424502D1F5
:1005D0004FF0040808E0DFF87081424502D14FF087
:1005E000050801E04FF006084FEA83794FEA1979D0
:1005F00008FA09F848EA0505DFF850814FEA93093F
:1006000048F82950D1F8048008F48018B8F5801F04
:100610000BD1DFF83C81D8F8008048EA0008DFF809
:100620003091C9F800800AE075E0DFF82481D8F83D
:10063000008028EA0008DFF81891C9F80080D1F896
:10064000048008F40018B8F5001F0ED1DFF800810F
:1006500008F10408D8F8008048EA0008DFF8F090B4
:1006600009F10409C9F800800DE0DFF8E48008F121
:100670000408D8F8008028EA0008DFF8D49009F1CF
:100680000409C9F80080D1F8048008F40038B8F5EE
:10069000003F0ED1DFF8B880A8F10408D8F8008038
:1006A00048EA0008DFF8A890A9F10409C9F8008019
:1006B0000DE0DFF89C80A8F10408D8F8008028EA53
:1006C0000008DFF88C90A9F10409C9F80080D1F87E
:1006D000048008F48038B8F5803F0ED1DFF87080D0
:1006E000A8F10808D8F8008048EA0008DFF8609010
:1006F000A9F10809C9F800800DE0DFF85480A8F1DD
:100700000808D8F8008028EA0008DFF84490A9F12A
:100710000809C9F800805B1CD1F8008028FA03F8AA
:10072000B8F1000F7FF47CAEBDE8F887000011102F
:100730000010024000080140000C01400010014080
:100740000014014000180140001C01400800014055
:1007500008040140024693680B400BB1012000E001
:100760000020704710B5C26821EA020302EA0104C2
:1007700043EA0443036110BD0AB1016101E00B04C7
:1007800003617047014800687047000000000020C6
:100790000348006803490978084401490860704724
:1007A000000000200800002010B50848006840F054
:1007B000100006490860032000F0DCF80F2000F06C
:1007C00007F800F05FF8002010BD00000020024094
:1007D0002DE9F04188B004460027B846002600BF46
:1007E0002348C06940F010002149C8610846C0692B
:1007F00000F01000019000BF00BF02A903A800F0A4
:1008000093F9069F1FB900F0B7F9054602E000F022
:10081000B3F945001748B5FBF0F0A0F10108164800
:100820001649086040F2E7311448C160C0F80480FE
:10083000002101618160816100F01AFC064696B9D1
:100840000E4800F049FC06466EB9362000F044F828
:10085000102C07D200222146362000F04DF808481F
:10086000046000E00126304608B0BDE8F0810000D9
:100870000010024040420F00001000407C000020A9
:100880000400002008B500BF1148806940F0010055
:100890000F4988610846806900F00100009000BFA0
:1008A00000BF00BF0846C06940F08050C8610846DC
:1008B000C06900F08050009000BF00BF00BF054934
:1008C000486820F0E06040F00070486000BF08BD5C
:1008D000001002400000014001460846002809DBE4
:1008E00000F01F0301229A4043099B0003F1E0231B
:1008F000C3F8002100BF70472DE9F05F80460D4628
:100900001646002700F024FE074639462A4633469D
:1009100001F00700C0F1070ABAF1040F02D94FF045
:10092000040A01E0C0F1070AD14600F1040ABAF155
:10093000070F02D24FF0000A01E0A0F1030AD446EB
:100940004FF0010A0AFA09FAAAF1010A0AEA020AB0
:100950000AFA0CFA4FF0010B0BFA0CFBABF1010B8E
:100960000BEA030B4AEA0B042146404600F0F8FD6F
:10097000BDE8F09F00BF00F00702064B19684FF674
:10098000FF031940044B0B4343EA0221014B19605A
:1009900000BF70470CED00E00000FA0570B504469A
:1009A0000D460CB9012070BD5A48006800F00700E0
:1009B000A8420ED25748006820F007002843554946
:1009C00008600846006800F00700A84201D0012036
:1009D000E9E7207800F0020002281DD1207800F01D
:1009E0000400042805D14C48406840F4E0604A49BE
:1009F0004860207800F00800082805D14648406883
:100A000040F46050444948604348406820F0F0009A
:100A1000A168084340494860207800F0010078B39D
:100A20006068012806D13C48006800F4003090B9A5
:100A30000120B8E76068022806D13748006800F056
:100A4000007040B90120AEE73348006800F00200B2
:100A500008B90120A7E73048406820F0030061682A
:100A600008432D494860FFF78DFE064609E0FFF771
:100A700089FE801B41F28831884202D9032092E727
:100A800007E02548406800F00C006168B0EB810F7A
:100A9000EDD12048006800F00700A8420ED91D489B
:100AA000006820F0070028431A49086008460068DB
:100AB00000F00700A84201D0012074E7207800F080
:100AC0000400042807D11448406820F4E060E1687D
:100AD000084311494860207800F00800082808D130
:100AE0000D48406820F46050216940EAC1000A497D
:100AF000486000F051F808494968C1F30311074AFA
:100B0000515CC8400649086006480068FFF760FE6F
:100B1000002048E70020024000100240FE200008AC
:100B20000C000020040000200F2202600D4A5268D1
:100B300002F0030242600B4A526802F0F002826047
:100B4000084A526802F4E062C260064A526802F43F
:100B50006052D2080261044A126802F007020A6079
:100B60007047000000100240002002400148006869
:100B7000704700000C00002000B5FFF7F7FF0449A4
:100B80004968C1F30221034A515CC84000BD00001E
:100B9000001002400E21000870B500210022002440
:100BA00000230020134D696801F00C05F5B1042DF8
:100BB00002D0082D19D101E00F4819E00F4DC1F303
:100BC0008346AB5D01F4803555B10A4D6D68C5F3C0
:100BD00040450B4E725D084D5D43B5FBF2F402E0FB
:100BE000084D03FB05F4204602E000BF024800BFA9
:100BF00000BF70BD0010024000127A00EC20000817
:100C0000FC20000800093D00F8B504460CB901209D
:100C1000F8BD207800F00100002878D0F84840683E
:100C200000F00C0004280CD0F548406800F00C00DF
:100C3000082811D1F248406800F48030B0F5803FB8
:100C40000AD1EF48006800F4003000285FD06068E7
:100C500000285CD10120DBE700BF6068B0F5803F71
:100C600006D1E748006840F48030E549086028E094
:100C7000606858B9E248006820F48030E0490860B4
:100C80000846006820F4802008601AE06068B0F52B
:100C9000A02F0BD1DA48006840F48020D8490860C2
:100CA0000846006840F4803008600AE0D4480068D4
:100CB00020F48030D24908600846006820F4802083
:100CC000086000BF606888B1FFF75CFD054606E07C
:100CD000FFF758FD401B642801D9032098E7C84856
:100CE000006800F400300028F2D010E0FFF74AFD61
:100CF000054606E0FFF746FD401B642801D90320A6
:100D000086E7BF48006800F400300028F2D1207860
:100D100000F00200022857D1B948406800F00C00EA
:100D200050B1B748406800F00C00082818D1B4480A
:100D3000406800F4803098B9B148006800F00200C3
:100D400020B12069012801D0012061E7AC4800688A
:100D500020F0F800616940EAC100A949086033E069
:100D60002069E8B10120A7490860FFF70BFD05469F
:100D700006E0FFF707FD401B022801D9032047E7E3
:100D80009F48006800F002000028F2D09C480068EC
:100D900020F0F800616940EAC1009949086013E059
:100DA000002098490860FFF7EDFC054606E0FFF7D4
:100DB000E9FC401B022801D9032029E7904800687C
:100DC00000F002000028F2D1207800F00800082886
:100DD0002DD1A069B8B101208B490860FFF7D2FC82
:100DE000054606E0FFF7CEFC401B022801D9032090
:100DF0000EE78348406A00F002000028F2D001208C
:100E000000F0F6FA13E000207F490860FFF7BAFC13
:100E1000054606E0FFF7B6FC401B022801D9032077
:100E2000F6E67748406A00F002000028F2D1207808
:100E300000F00400042873D100277148C06900F055
:100E4000805070B900BF6E48C06940F080506C4956
:100E5000C8610846C06900F08050009000BF00BF24
:100E600001276A48006800F48070B0B967480068DC
:100E700040F4807065490860FFF784FC054606E091
:100E8000FFF780FC401B642801D90320C0E65F48BF
:100E9000006800F480700028F2D000BFE0680128EC
:100EA00006D15748006A40F001005549086227E022
:100EB000E06858B95248006A20F0010050490862C1
:100EC0000846006A20F00400086219E0E06805287E
:100ED0000BD14B48006A40F00400494908620846BB
:100EE000006A40F0010008620AE04548006A20F00C
:100EF0000100434908620846006A20F004000862C5
:100F000000BFE068A0B1FFF73DFC054609E0FFF730
:100F100039FC401B41F28831884202D9032077E630
:100F200022E03748006A00F002000028EFD012E00B
:100F3000FFF728FC054608E0FFF724FC401B41F2C0
:100F40008831884201D9032062E62D48006A00F00A
:100F500002000028F0D1012F05D12948C06920F0F6
:100F600080502749C86100BFE069C8B32448406881
:100F700000F00C00082860D0E069022848D1002069
:100F800020490866FFF7FEFB054606E0FFF7FAFB7F
:100F9000401B022801D903203AE61948006800F0F6
:100FA00000700028F2D1206AB0F5803F07D11448C4
:100FB000406820F40030A168084311494860D4E932
:100FC000080108430E49496821F4741108430C498B
:100FD000486001200B490866FFF7D4FB054607E08F
:100FE0003DE0FFF7CFFB401B022801D903200FE6AD
:100FF0000348006800F000700028F2D02FE00000E5
:101000000010024000004242800442420070004052
:10101000002014490866FFF7B5FB054606E0FFF718
:10102000B1FB401B022801D90320F1E50E480068FE
:1010300000F000700028F2D111E0E069012800D131
:10104000E6E50948466806F48031206A814204D109
:1010500006F47011606A814201D00120D8E50020B9
:10106000D6E5000000004242001002407047704781
:1010700010B504460CB9012010BD94F83D0028B904
:10108000002084F83C00204600F025F8022084F877
:101090003D00211D206800F003FA012084F846007D
:1010A00000BF84F83E0001213F200155402001553A
:1010B0004120015500BF00BF012084F842004320B9
:1010C0000155442001554520015500BF012084F8F9
:1010D0003D000020D0E77047014691F83D0001280F
:1010E00001D001207047022081F83D000868C068E7
:1010F00040F001000B68D860164B0868984213D086
:10110000154B086898420FD00868B0F1804F0BD09B
:10111000124B0868984207D0114B0868984203D0D8
:10112000104B086898420CD10868806800F00702EC
:10113000062A0CD00868006840F001000B681860AF
:1011400005E00868006840F001000B6818600020A6
:10115000C8E70000002C01400034014000040040BA
:1011600000080040000C0040704770B5044620683D
:10117000C5682068066906F00200022819D105F04A
:101180000200022815D1401F216808610120207744
:101190002068806900F0030018B12046FFF7E4FFE3
:1011A00005E0204600F097F8204600F095F8002072
:1011B000207706F00400042819D105F00400042863
:1011C00015D1C0432168086102202077206880691A
:1011D00000F4407018B12046FFF7C6FF05E0204636
:1011E00000F079F8204600F077F80020207706F02C
:1011F0000800082819D105F00800082815D1C043B7
:1012000021680861042020772068C06900F003008D
:1012100018B12046FFF7A8FF05E0204600F05BF874
:10122000204600F059F80020207706F01000102822
:1012300019D105F01000102815D1C04321680861AC
:10124000082020772068C06900F4407018B120465B
:10125000FFF78AFF05E0204600F03DF8204600F049
:101260003BF80020207706F0010048B105F00100AE
:1012700030B16FF0010021680861204600F02EF8BF
:1012800006F08000802809D105F08000802805D173
:10129000C043216808612046FFF7E8FE06F04000E1
:1012A000402809D105F04000402805D1C0432168FD
:1012B0000861204600F01EF806F02000202809D121
:1012C00005F02000202805D1C04321680861204690
:1012D000FFF7CDFE70BD70477047000010B50446A3
:1012E00003492068884201D1FFF752FA10BD00007F
:1012F00000100040704700BFFEE7000010B5044634
:1013000021460248FFF72EFA10BD000000080140F8
:1013100010B54FF480710848FFF71CFA50B90A2045
:10132000FFF764F84FF480710348FFF713FA08B928
:10133000012010BD0020FCE7001C014000B585B075
:101340000020019002900390049000BF2348806920
:1013500040F01000214988610846806900F01000C3
:10136000009000BF00BF00BF0846806940F08000C9
:1013700088610846806900F08000009000BF00BFCF
:1013800000BF0846806940F0040088610846806913
:1013900000F00400009000BF00BF012240F20311E2
:1013A0000F48FFF7E9F94FF4807001900020029098
:1013B0000120039001A90B48FFF72CF840F203101D
:1013C000019001200290002003900320049001A9C5
:1013D0000348FFF71FF805B000BD000000100240F1
:1013E00000080140001C014000BFFEE700BFFEE70F
:1013F00008B508490968C9084FF47A72B1FBF2F1DF
:101400004143009100BF00BF00994A1E009200298D
:10141000F9D108BD0C00002010B500F0E1FC012856
:1014200001D000F08FFC10BD00B58FB0282105A8B9
:10143000FEF738FF14216846FEF734FF01200590BF
:1014400000040690002007900120099002200C90D3
:10145000C1030D914FF4E0110E9105A8FFF7D4FBE5
:1014600008B1FEF7C0FF0F2000900220019000207D
:1014700002904FF48060039000200490022168469F
:10148000FFF78CFA08B1FEF7AEFF0FB000BD704752
:1014900010B50248FFF769FE10BD00007C00002077
:1014A00010B50268244B98420ED0244B98420BD0C2
:1014B000B0F1804F08D0224B984205D0214B984282
:1014C00002D0214B984203D122F070024B681A439C
:1014D000194B98420ED0194B98420BD0B0F1804F67
:1014E00008D0174B984205D0164B984202D0164BA5
:1014F000984203D122F44072CB681A4322F0800351
:101500004C6943EA040202608B68C3620B68836221
:10151000094B984202D0094B984201D10B690363F1
:1015200001234361036903F001031BB1036923F045
:101530000103036110BD0000002C01400034014094
:101540000004004000080040000C004000BFFEE71F
:1015500002480068C0F30220704700000CED00E074
:1015600010B5002804DB0A07130E054A135406E0E1
:101570000A07140E034A00F00F031B1FD45410BDBA
:1015800000E400E018ED00E0FFF70EF9FFF74CFF74
:10159000FFF7D4FEFEF7EAFE00BFFEE710B50446F3
:1015A00000F066FA2F480068401C2E4908602E485B
:1015B000006840B92C4804600846006801280DD135
:1015C00000F016F90AE02948006838B92648006892
:1015D000C06AE16A884201D8234804602448006850
:1015E000401C2349086094F82C10012088402149B0
:1015F000096808431F490860E16A01EB81011E4A3E
:1016000002EB81014868A0608268E260211D826867
:1016100051608160E16A01EB8101174A02EB8102AE
:101620006261E16A01EB8101134A52F82110491C01
:10163000E26A02EB8202104B43F8221000F02AFA11
:101640000A48006868B108480068C06AE16A8842D0
:1016500007D24FF0805009490860BFF34F8FBFF3A6
:101660006F8F10BD2C0000201C00002038000020CF
:101670004800002034000020C400002004ED00E0F9
:1016800010B516E000F0F4F90C48C068C468201DDD
:1016900000F0BEF90A480068401E09490860094880
:1016A0000068401E0749086000F0F4F9204600F089
:1016B0000BF8044800680028E4D110BD6401002044
:1016C0002C0000202800002010B50446206B00F0FC
:1016D000F1F9204600F0EEF910BD000030B54FF4EE
:1016E0008843154800F007042CB1C01D20F0070006
:1016F000114C041B1B1B0246104C226000240F4D92
:101700006C60D018083820F007000D4C20600024D1
:101710000B4D2D686C600A4D2D682C601146441AE3
:101720004C60074C24680C60064D4C682C60064DDC
:101730004C682C6030BD00008C0100205C00002053
:10174000640000206C0000206800002000BFFFF74C
:1017500097FF064800680128F9D94FF080500449E6
:101760000860BFF34F8FBFF36F8FF0E7C400002016
:1017700004ED00E02DE9FF5F80460E469146DDE96D
:101780000E7A109CA9F10100216B01EB800B2BF06C
:10179000070B7EB1002507E0715D04F1340041556F
:1017A000705D00B902E06D1C102DF5D300BF002163
:1017B00043200155052F00D30427E762201D00F0C8
:1017C00048F904F1180000F044F92461C7F105005C
:1017D000A061646241465846039A00F007F9206010
:1017E000BAF1000F01D0CAF80040BDE8FF9F000029
:1017F00010B5002407E004EB84010F4A02EB8100DE
:1018000000F01AF9641C052CF5D30C4800F014F90B
:101810000B4800F011F90B4800F00EF90A4800F0EF
:101820000BF90A4800F008F904480949086004481F
:101830000849086010BD0000C400002028010020F5
:101840003C010020500100206401002078010020AC
:10185000200000202400002010B50146164800E0BA
:10186000006803688B42FBD30246436813448B42F3
:1018700004D143684C682344436001460A464B68E0
:1018800013440468A34211D10C4C03682468A3429A
:1018900008D04B680468646823444B6003681B6885
:1018A0000B6005E0054B1B680B6001E003680B60F3
:1018B000884200D0016010BD5C0000206400002060
:1018C00009480068006808B9012000E0002020B144
:1018D0004FF0FF300549086005E003480068C06824
:1018E0000068024908607047200000204C0000207A
:1018F00000BFBF2080F31188BFF34F8FBFF36F8FFE
:1019000000BF00BFFEE700002DE9F04705464FF09D
:10191000000900F0C5F93048006808B9FFF7DEFE9D
:1019200075B105F00700C0F11008C8F1FF30A842FA
:1019300001D2012000E0002008B9454400E0002564
:10194000012000EBE570002841D0002D3FD0234856
:10195000006885423BD8224E3046046801E02646A6
:1019600024686068A84202D220680028F7D11A488B
:10197000006884422BD0306800F10809206830608C
:101980006068401B102807D967196068401B7860A1
:1019900065603846FFF760FF104960680968081AFB
:1019A0000E490860084600680E490968884203D25B
:1019B0000A4800680B490860606840F000406060B9
:1019C0000020206008480068401C0749086000F0BB
:1019D000DFFA4846BDE8F087640000206800002078
:1019E0005C0000206C00002070000020001F4FF001
:1019F00080730360001F21F001030360001F034B8D
:101A0000036014380260203870470000F1180008A5
:101A100001460A69D1E901309860D1E901035860B3
:101A20005068884201D188685060002008611068C1
:101A3000401E10601068704700F1080141604FF0CF
:101A4000FF31816000F10801C16001610021016086
:101A5000704700210161704742684A6093688B605B
:101A6000936859609160086103685B1C036070476C
:101A700000BFBF2080F31188BFF34F8FBFF36F8F7C
:101A800000BF03480068401C01490860704700001F
:101A90007800002006480068401E05490860084696
:101AA000006820B9002080F3118800BF00BF704794
:101AB0007800002070B506463546E6B1083D2C4654
:101AC0006068C00FB8B12068A8B9606820F0004015
:101AD000606000F0E5F80849606809680844064954
:101AE00008602046FFF7B8FE04480068401C034920
:101AF000086000F04DFA70BD6800002074000020FE
:101B000000204FF0E0210861886102484861072009
:101B1000086170473F19010006E00120FFF7EEFB66
:101B20004FF4FA70FEF762FCF7E706E00220FFF7D9
:101B3000E5FB4FF4FA70FEF759FCF7E70CE0FFF70E
:101B4000E7FB48B10548006830B10448006800F080
:101B500007F8002001490860F1E7000010000020AC
:101B600070B50546FFF784FF15B92948006800E005
:101B700028460446201DFFF74BFF78B9E06A00EBCA
:101B80008000244951F8200040B994F82C1001201D
:101B900088402149096881431F480160A06A18B143
:101BA00004F11800FFF734FF1C480068401C1B4973
:101BB000086017480068844209D1211D1848FFF7C2
:101BC0004BFF18480068401C1649086006E016489C
:101BD0000068401E14490860FFF772FEFFF75AFFC5
:101BE0000B480068844202D02046FFF76DFD0F4885
:101BF000006858B106480068844207D14FF0805011
:101C00000B490860BFF34F8FBFF36F8F70BD0000AB
:101C10001C000020C40000203400002048000020E8
:101C200064010020280000202C0000203800002043
:101C300004ED00E01CB5124800210B468022CDE9DE
:101C4000001010A1114800F097F80446012C14D19F
:101C500000BFBF2080F31188BFF34F8FBFF36F8F9A
:101C600000BF4FF0FF300A490860012009490860B1
:101C700000200949086000F04BF8084800681CBDC6
:101C80005000002049444C45000000004D1700085A
:101C90004C000020380000203000002054000020BC
:101CA00002480068401C0149086070475800002045
:101CB0001248006818B10120114908601DE0002099
:101CC0000F4908600F480068B0FA80F0C0F11F01AA
:101CD00001EB81020C4B03EB8200426852684260C8
:101CE00000F108024368934202D1426852684260A0
:101CF0004268D268054B1A6000BF70475800002048
:101D00004000002034000020C40000201C000020FF
:101D100010B50A48006840F47F000849086008468A
:101D2000006840F07F400860FFF7EAFE00200449A9
:101D30000860FEF75DFA002010BD000020ED00E015
:101D40007800002010B500BFBF2080F31188BFF3DA
:101D50004F8FBFF36F8F00BF00F052F818B14FF0F4
:101D600080500449086000BF002080F3118800BF44
:101D700010BD000004ED00E02DE9FF4F85B0804666
:101D800089461746DDE912ABB800FFF7BDFD0646F0
:101D900076B14C20FFF7B8FD04462CB14C2120460B
:101DA000FEF780FA266304E03046FFF783FE00E08A
:101DB00000247CB10020CDE900ABCDE902403A46D9
:101DC00049464046089BFFF7D5FC2046FFF7E6FB57
:101DD000012501E04FF0FF35284609B0BDE8F08F3E
:101DE0000549096809B9012005E00449096809B9EC
:101DF000022000E00020704738000020580000203A
:101E00002DE9F04100275748006800287ED1564848
:101E10000068451C544805608DB95448D0F80080CE
:101E200053480068514908605148C0F80080514843
:101E30000068401C4F490860FFF742FD00BF4E4854
:101E40000068854276D300BF48480068006808B93A
:101E5000012000E0002020B14FF0FF30464908602B
:101E600067E042480068C068C4686668B54202D24C
:101E7000414806605DE06069D4E902128A60D4E9F5
:101E800002214A60211D42688A4201D1E168416015
:101E9000002262610168491E0160A06A98B1A06ACF
:101EA000D4E907128A60D4E907214A6004F11801D5
:101EB00042688A4201D1216A41600022A26201681F
:101EC000491E016000BF94F82C10012088402B4966
:101ED0000968084329490860E16A01EB8101284A41
:101EE00002EB81014868A0608268E260211D82687F
:101EF00051608160E16A01EB8101214A02EB8102BC
:101F00006261E16A01EB81011D4A00E022E052F8C2
:101F10002110491CE26A02EB8202194B43F822109D
:101F20001849E06A0968C96A88428DD901278BE798
:101F300000E000BF13480068C06A00EB8000104951
:101F400051F82000012800D901270F48006800B18E
:101F5000012704E00D480068401C0C490860384621
:101F6000BDE8F08158000020300000202000002053
:101F700024000020440000204C00002034000020F9
:101F8000C40000201C000020400000203C00002075
:101F900070B500240026FFF76BFD4B480068401E1B
:101FA000494908600846006800287DD14748006814
:101FB000002879D05BE04648C068C468A06AD4E9CC
:101FC00007128A60D4E907214A6004F118014268C7
:101FD0008A4201D1216A41600022A2620168491E41
:101FE00001606069D4E902128A60D4E902214A6082
:101FF000211D42688A4201D1E1684160002262618C
:102000000168491E016094F82C1001208840314974
:10201000096808432F490860E16A01EB81012E4AF3
:1020200002EB81014868A0608268E260211D82683D
:1020300051608160E16A01EB8101274A02EB810274
:102040006261E16A01EB8101234A52F82110491CC7
:10205000E26A02EB8202204B43F822101F49E06A39
:102060000968C96A884202D301201D4908601848DE
:10207000006808B9012000E0002000289BD00CB1C6
:10208000FFF71EFC1748056865B100BFFFF7B8FEF3
:1020900010B10120124908606D1E002DF6D10020FC
:1020A000104908600E4800E009E0006838B10126D8
:1020B00030070D490860BFF34F8FBFF36F8FFFF7F5
:1020C000E9FC304670BD0000580000202C000020C4
:1020D0005001002034000020C40000201C0000201B
:1020E000400000203C00002004ED00E00203040555
:1020F000060708090A0B0C0D0E0F10100102000054
:1021000000000000000001020304060708090000A7
:102110000000010203040000382100080000002034
:102120007C0000006C010008B42100087C00002045
:10213000744B00008801000800000000100000003F
:102140000100000000127A00000000000000000002
:10215000000000000000000000000000000000007F
:10216000000000000000000000000000000000006F
:10217000000000000000000000000000000000005F
:10218000000000000000000000000000040000004B
:10219000000000000000000000000000000000003F
:1021A000000000000000000000000000000000002F
:0421B000AAAAAAAA83
:0400000508000131BD
:00000001FF
