:020000040800F2
:10000000D8490020E1010008E91500081F14000884
:10001000E5150008010300083D1900080000000074
:10002000000000000000000000000000490100087E
:1000300005030008000000008D01000815160008E7
:10004000FB010008FB010008FB010008FB010008A0
:10005000FB010008FB010008FB010008FB01000890
:10006000FB010008FB010008FB010008FB01000880
:10007000FB010008FB010008FB010008FB01000870
:10008000FB010008FB010008FB010008FB01000860
:10009000FB010008FB010008FB0100080703000842
:1000A000FB010008FB010008FB010008FB01000840
:1000B000FB010008FB010008FB010008FB01000830
:1000C000FB010008FB010008FB010008FB01000820
:1000D000FB010008FB010008FB010008FB01000810
:1000E000FB010008FB010008FB010008FB01000800
:1000F000FB010008FB010008FB010008FB010008F0
:10010000FB010008FB010008FB010008FB010008DF
:10011000FB010008FB0100088D160008FB01000828
:10012000FB010008FB010008FB010008FB010008BF
:10013000DFF810D000F08AF800480047E519000801
:10014000AFF30080D8490020224B19680868B0E856
:10015000F00F80F30988BFF36F8F4FF0000080F33A
:1001600011884EF00D0E7047000000000648006830
:10017000006880F3088862B661B6BFF34F8FBFF3A3
:100180006F8F00DF00BF00BF08ED00E0EFF30980D4
:10019000BFF36F8F0F4B1A6820E9F00F106008B59E
:1001A0004FF0BF0080F31188BFF34F8FBFF36F8F05
:1001B00002F050F94FF0000080F31188BDE80840CC
:1001C00019680868B0E8F00F80F30988BFF36F8FF3
:1001D000704700BF1C000020EFF30580704700004F
:1001E0000648804706480047FEE7FEE7FEE7FEE7D1
:1001F000FEE7FEE7FEE7FEE7FEE7FEE78B160008F8
:100200003101000840EA01039B0703D009E008C957
:10021000121F08C0042AFAD203E011F8013B00F8CB
:10022000013B521EF9D27047D2B201E000F8012B17
:10023000491EFBD270470022F6E710B513460A4666
:1002400004461946FFF7F0FF204610BD064C074D47
:1002500006E0E06840F0010394E807009847103496
:10026000AC42F6D3FFF768FF182D0008382D0008C0
:100270001CB501F069FF1348012100238022CDE95C
:10028000001011A1124802F0F3FA124802210023D3
:100290008022CDE9001010A1114802F0E9FA0322F2
:1002A0000021012002F03AF90E4908600846006872
:1002B00010B10DA001F044FB01F058FF02F08CF8E2
:1002C0001CBD0000100000207461736B3100000041
:1002D000F1210008140000207461736B32000000EB
:1002E0008522000818000020B4B4BDA8B6FEBDF8F1
:1002F000D6C6D0C5BAC5C1BFB3C9B9A6A3A10A00A5
:1003000000BFFEE7704710B54FF4007000F01AF818
:1003100010BD72B600BFFEE770B5044600F0D8F914
:1003200006462546681C10B104480078054400BF05
:1003300000F0CEF9801BA842FAD370BD080000205F
:100340007047000010B5044604480068204020B102
:10035000024804602046FFF7F3FF10BD140401407B
:100360002DE9F847024600239C467BE14FF0010847
:1003700008FA03F4D1F8008008EA0400A0427DD115
:10038000DFF8F4A2D1F80480A8EB0A09D0453AD0EE
:1003900014DCB8F1030F50D009DCB8F1000F31D0F4
:1003A000B8F1010F1CD0B8F1020F49D120E0B8F12B
:1003B000110F18D0B8F1120F42D11EE0B9F5881F05
:1003C00025D006DCB9F5803F20D0B9F5801F37D1A4
:1003D0001AE0B9F5001F18D0B9F5041F30D117E0A5
:1003E000D1F80CC02DE0D1F80C8008F1040C28E005
:1003F000D1F80C8008F1080C23E0D1F80C8008F14A
:100400000C0C1EE000BF00BF00BF00BF00BF00BF5C
:10041000D1F80880B8F1000F02D14FF0040C0BE0C6
:10042000D1F80880B8F1010F03D14FF0080C146126
:1004300002E04FF0080C546103E04FF0000C00E0C4
:1004400000BF00BFFF2801D8904601E002F1040878
:100450004646FF2802D84FEA830803E0A3F10808C4
:100460004FEA88084746D6F800804FF00F0909FA8E
:1004700007F928EA09080CFA07F900E07AE048EAE7
:100480000908C6F80080D1F8048008F08058B8F157
:10049000805F6FD100BFDFF8E481D8F8188048F0A2
:1004A0000108DFF8D891C9F81880C846D8F8188034
:1004B00008F00108CDF8008000BF00BF4FEAB9384E
:1004C0004FEA930958F829504FEA83784FEA187990
:1004D0004FF00F0808FA09F825EA0805DFF8A081AF
:1004E000424502D14FF0000824E0DFF898814245F0
:1004F00002D14FF001081DE0DFF88C81424502D1A6
:100500004FF0020816E0DFF88481424502D14FF037
:1005100003080FE0DFF87881424502D14FF004086C
:1005200008E0DFF87081424502D14FF0050801E094
:100530004FF006084FEA83794FEA197908FA09F86B
:1005400048EA0505DFF850814FEA930948F8295039
:10055000D1F8048008F48018B8F5801F0BD1DFF8BB
:100560003C81D8F8008048EA0008DFF83091C9F8EB
:1005700000800AE075E0DFF82481D8F8008028EADE
:100580000008DFF81891C9F80080D1F8048008F459
:100590000018B8F5001F0ED1DFF8008108F104083B
:1005A000D8F8008048EA0008DFF8F09009F1040963
:1005B000C9F800800DE0DFF8E48008F10408D8F8FD
:1005C000008028EA0008DFF8D49009F10409C9F88E
:1005D0000080D1F8048008F40038B8F5003F0ED14F
:1005E000DFF8B880A8F10408D8F8008048EA0008CD
:1005F000DFF8A890A9F10409C9F800800DE0DFF840
:100600009C80A8F10408D8F8008028EA0008DFF8E8
:100610008C90A9F10409C9F80080D1F8048008F48D
:100620008038B8F5803F0ED1DFF87080A8F1080857
:10063000D8F8008048EA0008DFF86090A9F10809BE
:10064000C9F800800DE0DFF85480A8F10808D8F858
:10065000008028EA0008DFF84490A9F10809C9F8E9
:1006600000805B1CD1F8008028FA03F8B8F1000F75
:100670007FF47CAEBDE8F887000011100010024046
:1006800000080140000C014000100140001401402E
:1006900000180140001C014008000140080401400E
:1006A000024693680B400BB1012000E00020704728
:1006B00010B5C26821EA020302EA010443EA0443D6
:1006C000036110BD0AB1016101E00B0403617047D1
:1006D00001480068704700000000002003480068DF
:1006E0000349097808440149086070470000002068
:1006F0000800002010B50848006840F010000649C6
:100700000860032000F0DCF8002000F007F800F09B
:100710005FF8002010BD0000002002402DE9F041EC
:1007200088B004460027B846002600BF2348C069A9
:1007300040F010002149C8610846C06900F010006F
:10074000019000BF00BF02A903A800F093F9069F23
:100750001FB900F0B7F9054602E000F0B3F9450013
:100760001748B5FBF0F0A0F10108164816490860DB
:1007700040F2E7311448C160C0F8048000210161F3
:100780008160816100F02AFC064696B90E4800F0AF
:1007900059FC06466EB9362000F044F8102C07D2FA
:1007A00000222146362000F04DF80848046000E0A1
:1007B0000126304608B0BDE8F0810000001002407C
:1007C00040420F0000100040C8000020040000203C
:1007D00008B500BF1148806940F001000F498861E9
:1007E0000846806900F00100009000BF00BF00BF14
:1007F0000846C06940F08050C8610846C06900F0F2
:100800008050009000BF00BF00BF0549486820F03D
:10081000E06040F00070486000BF08BD001002407A
:100820000000014001460846002809DB00F01F03D4
:1008300001229A4043099B0003F1E023C3F8002101
:1008400000BF70472DE9F05F80460D461646002731
:1008500001F07EF8074639462A46334601F0070084
:10086000C0F1070ABAF1040F02D94FF0040A01E0FF
:10087000C0F1070AD14600F1040ABAF1070F02D20B
:100880004FF0000A01E0A0F1030AD4464FF0010A3C
:100890000AFA09FAAAF1010A0AEA020A0AFA0CFAA1
:1008A0004FF0010B0BFA0CFBABF1010B0BEA030B46
:1008B0004AEA0B042146404601F052F8BDE8F09F99
:1008C00000BF00F00702064B19684FF6FF031940FE
:1008D000044B0B4343EA0221014B196000BF7047F0
:1008E0000CED00E00000FA0570B504460D460CB9A9
:1008F000012070BD5A48006800F00700A8420ED2DF
:100900005748006820F0070028435549086008460A
:10091000006800F00700A84201D00120E9E7207834
:1009200000F0020002281DD1207800F00400042805
:1009300005D14C48406840F4E0604A49486020785E
:1009400000F00800082805D14648406840F460508F
:10095000444948604348406820F0F000A1680843DB
:1009600040494860207800F0010078B360680128B1
:1009700006D13C48006800F4003090B90120B8E787
:100980006068022806D13748006800F0007040B95E
:100990000120AEE73348006800F0020008B90120EA
:1009A000A7E73048406820F00300616808432D49FC
:1009B0004860FFF78DFE064609E0FFF789FE801BC1
:1009C00041F28831884202D9032092E707E02548A6
:1009D000406800F00C006168B0EB810FEDD1204859
:1009E000006800F00700A8420ED91D48006820F0FA
:1009F000070028431A4908600846006800F007000D
:100A0000A84201D0012074E7207800F004000428F7
:100A100007D11448406820F4E060E16808431149B8
:100A20004860207800F00800082808D10D48406888
:100A300020F46050216940EAC1000A49486000F092
:100A400061F808494968C1F30311074A515CC8407D
:100A50000649086006480068FFF760FE002048E786
:100A60000020024000100240FE2C00080C00002074
:100A7000040000200F2202600D4A526802F00302B7
:100A800042600B4A526802F0F0028260084A5268E3
:100A900002F4E062C260064A526802F46052D20870
:100AA0000261044A126802F007020A6070470000FF
:100AB000001002400020024001480068704700001A
:100AC0000C00002000B5FFF7F7FF04494968C1F3A7
:100AD0000221034A515CC84000BD000000100240E2
:100AE0000E2D000800B5FFF7E7FF04494968C1F380
:100AF000C221034A515CC84000BD00000010024002
:100B00000E2D000870B500210022002400230020D3
:100B1000134D696801F00C05F5B1042D02D0082DC4
:100B200019D101E00F4819E00F4DC1F38346AB5DC9
:100B300001F4803555B10A4D6D68C5F340450B4E43
:100B4000725D084D5D43B5FBF2F402E0084D03FB16
:100B500005F4204602E000BF024800BF00BF70BDA0
:100B60000010024000127A00EC2C0008FC2C000857
:100B700000093D00F8B504460CB90120F8BD207805
:100B800000F00100002878D0F848406800F00C0020
:100B900004280CD0F548406800F00C00082811D15A
:100BA000F248406800F48030B0F5803F0AD1EF4849
:100BB000006800F4003000285FD0606800285CD135
:100BC0000120DBE700BF6068B0F5803F06D1E74851
:100BD000006840F48030E549086028E0606858B952
:100BE000E248006820F48030E04908600846006868
:100BF00020F4802008601AE06068B0F5A02F0BD1C7
:100C0000DA48006840F48020D84908600846006847
:100C100040F4803008600AE0D448006820F4803056
:100C2000D24908600846006820F48020086000BFB0
:100C3000606888B1FFF74CFD054606E0FFF748FD08
:100C4000401B642801D9032098E7C848006800F4D5
:100C500000300028F2D010E0FFF73AFD054606E02C
:100C6000FFF736FD401B642801D9032086E7BF4803
:100C7000006800F400300028F2D1207800F0020073
:100C8000022857D1B948406800F00C0050B1B7486D
:100C9000406800F00C00082818D1B448406800F4FF
:100CA000803098B9B148006800F0020020B1206996
:100CB000012801D0012061E7AC48006820F0F8006D
:100CC000616940EAC100A949086033E02069E8B1E0
:100CD0000120A7490860FFF7FBFC054606E0FFF787
:100CE000F7FC401B022801D9032047E79F48006812
:100CF00000F002000028F2D09C48006820F0F800C4
:100D0000616940EAC1009949086013E000209849F0
:100D10000860FFF7DDFC054606E0FFF7D9FC401B45
:100D2000022801D9032029E79048006800F002005A
:100D30000028F2D1207800F0080008282DD1A06901
:100D4000B8B101208B490860FFF7C2FC054606E0F8
:100D5000FFF7BEFC401B022801D903200EE78348A1
:100D6000406A00F002000028F2D0012000F03EFCB2
:100D700013E000207F490860FFF7AAFC054606E063
:100D8000FFF7A6FC401B022801D90320F6E67748AE
:100D9000406A00F002000028F2D1207800F0040040
:100DA000042873D100277148C06900F0805070B9E1
:100DB00000BF6E48C06940F080506C49C861084669
:100DC000C06900F08050009000BF00BF01276A4852
:100DD000006800F48070B0B96748006840F4807023
:100DE00065490860FFF774FC054606E0FFF770FCF4
:100DF000401B642801D90320C0E65F48006800F466
:100E000080700028F2D000BFE068012806D1574862
:100E1000006A40F001005549086227E0E06858B9CF
:100E20005248006A20F00100504908620846006AF2
:100E300020F00400086219E0E06805280BD14B4857
:100E4000006A40F00400494908620846006A40F020
:100E5000010008620AE04548006A20F001004349A9
:100E600008620846006A20F00400086200BFE068DB
:100E7000A0B1FFF72DFC054609E0FFF729FC401B58
:100E800041F28831884202D9032077E622E03748D0
:100E9000006A00F002000028EFD012E0FFF718FC13
:100EA000054608E0FFF714FC401B41F288318842F8
:100EB00001D9032062E62D48006A00F002000028F4
:100EC000F0D1012F05D12948C06920F08050274971
:100ED000C86100BFE069C8B32448406800F00C0056
:100EE000082860D0E069022848D10020204908661F
:100EF000FFF7EEFB054606E0FFF7EAFB401B022882
:100F000001D903203AE61948006800F00070002873
:100F1000F2D1206AB0F5803F07D11448406820F430
:100F20000030A168084311494860D4E9080108432A
:100F30000E49496821F4741108430C4948600120A6
:100F40000B490866FFF7C4FB054607E03DE0FFF7E5
:100F5000BFFB401B022801D903200FE603480068AD
:100F600000F000700028F2D02FE0000000100240D6
:100F700000004242800442420070004000201449B8
:100F80000866FFF7A5FB054606E0FFF7A1FB401B3F
:100F9000022801D90320F1E50E48006800F0007036
:100FA0000028F2D111E0E069012800D1E6E5094806
:100FB000466806F48031206A814204D106F470113B
:100FC000606A814201D00120D8E50020D6E500000A
:100FD00000004242001002407047704710B50446BE
:100FE0000CB9012010BD94F83D0028B9002084F808
:100FF0003C00204600F025F8022084F83D00211D29
:10100000206800F04BFB012084F8460000BF84F804
:101010003E0001213F20015540200155412001554E
:1010200000BF00BF012084F8420043200155442046
:1010300001554520015500BF012084F83D000020E6
:10104000D0E77047014691F83D00012801D001200A
:101050007047022081F83D000868C06840F0010038
:101060000B68D860164B0868984213D0154B086877
:1010700098420FD00868B0F1804F0BD0124B08682F
:10108000984207D0114B0868984203D0104B08686B
:1010900098420CD10868806800F00702062A0CD03C
:1010A0000868006840F001000B68186005E00868F7
:1010B000006840F001000B6818600020C8E70000DD
:1010C000002C0140003401400004004000080040B2
:1010D000000C0040704770B504462068C568206861
:1010E000066906F00200022819D105F00200022864
:1010F00015D1401F21680861012020772068806990
:1011000000F0030018B12046FFF7E4FF05E0204699
:1011100000F097F8204600F095F80020207706F0C0
:101120000400042819D105F00400042815D1C04397
:1011300021680861022020772068806900F44070EF
:1011400018B12046FFF7C6FF05E0204600F079F809
:10115000204600F077F80020207706F008000828E5
:1011600019D105F00800082815D1C043216808618D
:10117000042020772068C06900F0030018B12046E1
:10118000FFF7A8FF05E0204600F05BF8204600F0DE
:1011900059F80020207706F01000102819D105F02A
:1011A0001000102815D1C04321680861082020775D
:1011B0002068C06900F4407018B12046FFF78AFF2C
:1011C00005E0204600F03DF8204600F03BF8002006
:1011D000207706F0010048B105F0010030B16FF052
:1011E000010021680861204600F02EF806F080001A
:1011F000802809D105F08000802805D1C0432168EE
:1012000008612046FFF7E8FE06F04000402809D1BB
:1012100005F04000402805D1C04321680861204600
:1012200000F01EF806F02000202809D105F020006B
:10123000202805D1C043216808612046FFF7CDFE74
:1012400070BD70477047000010B504460349206820
:10125000884201D1FFF742FA10BD000000100040A3
:10126000704710B504460CB9012010BDA06900B14B
:1012700000E000BF94F8410028B9002084F8400045
:10128000204600F029F8242084F841002068C06836
:1012900020F400502168C860204600F08BFA2068D6
:1012A000006920F49040216808612068406920F0BE
:1012B0002A00216848612068C06840F40050216815
:1012C000C86000206064202084F8410084F8420057
:1012D0000020606300BFC8E710B586B00446002058
:1012E00002900390049005901A49206888422ED1FC
:1012F00000BF1948806940F480401749886108465A
:10130000806900F48040019000BF00BF00BF084624
:10131000806940F0040088610846806900F004009C
:10132000019000BF00BF48150290022003900320E7
:10133000059002A90948FFF713F84FF48060029066
:1013400000200390049002A90448FFF709F806B0B2
:1013500010BD0000003801400010024000080140AC
:101360002DE9F84F04460E46174699464FF0000AFD
:1013700094F84100202850D106B117B90120BDE8EA
:10138000F88F00206064212084F84100FFF7A0F965
:101390008246A784E784A068B0F5805F04D1206905
:1013A00010B90025B04602E035464FF000081EE0B7
:1013B0005346002280212046CDF8009000F078FAB4
:1013C00020B1202084F841000320D8E745B9B8F8BF
:1013D0000000C0F308002168486008F1020803E03B
:1013E0002878216848606D1CE08C401EE084E08C09
:1013F0000028DDD15346002240212046CDF8009040
:1014000000F056FA20B1202084F841000320B6E70E
:10141000202084F841000020B1E70220AFE700BFA0
:10142000FEE7000010B54FF480711F48FFF738F950
:1014300098B14FF400711C48FFF732F968B14FF4CE
:1014400080611948FFF72CF9012806D04FF400619C
:101450001548FFF725F9012824D10A20FEF75CFF83
:101460004FF480711048FFF71BF908B9032010BD35
:101470004FF400710C48FFF713F908B90420F6E7A0
:101480004FF480610848FFF70BF9012801D10520CE
:10149000EDE74FF400610448FFF702F9012801D19C
:1014A0000620E4E70020E2E7001C014010B50446F6
:1014B00021460248FFF7FCF810BD0000000801407B
:1014C00000B585B00020019002900390049000BF09
:1014D0003248806940F010003049886108468069D0
:1014E00000F01000009000BF00BF00BF08468069F8
:1014F00040F0800088610846806900F0800000901C
:1015000000BF00BF00BF0846806940F0040088614A
:101510000846806900F00400009000BF00BF01226F
:1015200040F203111E48FFF7CDF84FF48070019090
:10153000002002900120039001A91A48FEF710FF35
:101540004FF400700190184802900120039001A907
:101550001448FEF705FF4FF4406001900020029010
:101560000220039001A90F48FEF7FAFE40F2031093
:10157000019001200290002003900320049001A913
:101580000748FEF7EDFE002206211720FFF75AF963
:101590001720FFF747F905B000BD0000001002401A
:1015A00000080140001C01400000211010B50B484C
:1015B0000B4908604FF4E130486000210848816021
:1015C000C16001610C21416100218161C161FFF7AE
:1015D00048FE08B1FEF79DFE10BD00000038014036
:1015E0008000002000BFFEE700BFFEE708B5084905
:1015F0000968C9084FF47A72B1FBF2F141430091D6
:1016000000BF00BF00994A1E00920029F9D108BD11
:101610000C00002010B501F05FF9012801D000F0A6
:1016200063FF10BD00B58FB0282105A8FEF703FEAB
:1016300014216846FEF7FFFD012005900004069086
:10164000002007900120099002200C90C1030D9109
:101650004FF4E0110E9105A8FFF78CFA08B1FEF7E0
:1016600058FE0F20009002200190002002904FF4BD
:10167000806003900020049002216846FFF734F94F
:1016800008B1FEF746FE0FB000BD704710B5024826
:10169000FFF721FD10BD0000C800002010B5026852
:1016A000244B98420ED0244B98420BD0B0F1804F7F
:1016B00008D0224B984205D0214B984202D0214BB2
:1016C000984203D122F070024B681A43194B98429A
:1016D0000ED0194B98420BD0B0F1804F08D0174B69
:1016E000984205D0164B984202D0164B984203D12F
:1016F00022F44072CB681A4322F080034C6943EA1B
:10170000040202608B68C3620B688362094B9842D3
:1017100002D0094B984201D10B6903630123436155
:10172000036903F001031BB1036923F001030361A3
:1017300010BD0000002C01400034014000040040B6
:1017400000080040000C004000BF00BF02680C32DF
:1017500052E8002F22F4907102680C3242E8001324
:10176000002BF3D100BF00BF00BF0268143252E863
:10177000002F22F001010268143242E80013002B0E
:10178000F3D100BF016B01290ED100BF00BF026879
:101790000C3252E8002F22F0100102680C3242E8AD
:1017A0000013002BF3D100BF202180F8421000214C
:1017B0000163704770B504462168096921F44051FE
:1017C000E2681143226811612269A16811436269CC
:1017D00041EA02052168C96841F20C62914329433C
:1017E0002268D1602168496921F44071A2691143DE
:1017F000226851612D4A2168914202D1FFF772F9A6
:1018000001E0FFF75FF900EBC00101EB0011626836
:101810009200B1FBF2F100EBC00202EB0012636830
:101820009B00B2FBF3F26423B2FBF3F202EBC203C0
:1018300003EB0212A1EB8201322202EB01116422BE
:10184000B1FBF2F101F0F00100EBC00202EB00127B
:1018500063689B00B2FBF3F26423B2FBF3F201EB8B
:10186000021200EBC00101EB001163689B00B1FBA9
:10187000F3F100EBC00303EB00136668B600B3FBA3
:10188000F6F36426B3FBF6F303EBC30606EB031390
:10189000A1EB8301322303EB01116423B1FBF3F1CC
:1018A00001F00F0111442268916070BD00380140C1
:1018B0002DE9F84304460D4617469846089E31E048
:1018C000701C70B3FEF704FFA0EB0800B04200D814
:1018D00016B90320BDE8F8832068C06800F0040052
:1018E000F8B1802D1ED0402D1CD020680068C0F3B8
:1018F000C000B0B100BF00200090206800680090D8
:1019000020684068009000BF00BF2046FFF71CFF22
:101910000820606400BF002084F8400000BF012060
:10192000D8E7FFE7206800682840A84201D10120DD
:1019300000E00020B842C3D00020CBE700BFFEE7A4
:10194000014A024900F02FB8C91900087C000020A4
:1019500002480068C0F30220704700000CED00E070
:1019600010B5002804DB0A07130E054A135406E0DD
:101970000A07140E034A00F00F031B1FD45410BDB6
:1019800000E400E018ED00E002E008C8121F08C102
:10199000002AFAD170477047002001E001C1121FF0
:1019A000002AFBD170472DE9F04116460F46044648
:1019B000002503E03946B047641C6D1C20780028E0
:1019C000F8D12846BDE8F08113B50C464FF6FF73F9
:1019D000012269460248FFF7C3FC00981CBD0000C5
:1019E00080000020FEF786FEFFF71CFEFFF768FD73
:1019F000FFF7DCFD04A0FFF7A3FFFEF739FC09A009
:101A0000FFF79EFF00BFFEE74672656552544F53D5
:101A1000204578616D706C652053746172743A2052
:101A20000A0000004672656552544F5320457861A4
:101A30006D706C6520456E643A200A002DE9F04116
:101A400005460E462648076826480068001D00F037
:101A50003DFB50B92348006890F82C1001208840C5
:101A600021490968814320480160681CD8B9D6B172
:101A70001E4948681B49096888601A4982680968D4
:101A8000CA6018490968091D8268516015490968CA
:101A9000091D8160154A134909684A6111460968A0
:101AA000491C11601AE07C190E4800684460BC4271
:101AB00007D20C480168091D0D48006800F02AFB98
:101AC0000CE008480168091D0A48006800F022FB84
:101AD00009480068844201D207480460BDE8F081EB
:101AE000300000201C00002034000020C401002031
:101AF00024000020200000204C00002010B50446E7
:101B000000F022FB31480068401C30490860304832
:101B1000006840B92E4804600846006801280DD1CD
:101B200000F06AF90AE02B48006838B928480068D4
:101B3000C06AE16A884201D82548046026480068E6
:101B4000401C2549086008460068606494F82C1021
:101B50000120884021490968084320490860E16A5A
:101B600001EB81011E4A02EB81014868A060826896
:101B7000E260211D826851608160E16A01EB8101B0
:101B8000174A02EB81026261E16A01EB8101144AAA
:101B900052F82110491CE26A02EB8202104B43F812
:101BA000221000F0E3FA0B48006868B108480068AA
:101BB000C06AE16A884207D24FF080500949086044
:101BC000BFF34F8FBFF36F8F10BD00002C000020BC
:101BD0001C000020380000204800002034000020B5
:101BE0001001002004ED00E010B516E000F0ACFAA2
:101BF0000C48C068C468201D00F068FA0A480068F4
:101C0000401E0949086009480068401E07490860ED
:101C100000F0ACFA204600F040F8044800680028C4
:101C2000E4D110BDB00100202C00002028000020CD
:101C30002DE9F04104460F4615464FF00008A66B0B
:101C4000206C28B37DB93946226C6068FEF7DAFA59
:101C5000216C606808446060D4E90101884217D3B0
:101C60002068606014E03946226CE068FEF7CAFA2A
:101C7000216CE068411AE1602168E068884203D283
:101C8000216CA068411AE160022D01D106B1761ED7
:101C9000701CA0634046BDE8F08110B50446206B7F
:101CA00000F074FA204600F071FA10BD30B54FF420
:101CB0008843154800F007042CB1C01D20F0070030
:101CC000114C041B1B1B0246104C226000240F4DBC
:101CD0006C60D018083820F007000D4C20600024FC
:101CE0000B4D2D686C600A4D2D682C601146441A0E
:101CF0004C60074C24680C60064D4C682C60064D07
:101D00004C682C6030BD0000D80100205C00002031
:101D1000640000206C0000206800002000BFFFF776
:101D200063FF064800680128F9D94FF08050044944
:101D30000860BFF34F8FBFF36F8FF0E710010020F3
:101D400004ED00E02DE9F04106460D4617469846A1
:101D5000069C0DB9246000E02760E663256401213C
:101D6000204600F001FC84F84C80BDE8F0812DE9AC
:101D7000F05F81460E4617469A46DDF828800C9C97
:101D8000B900A522206BFEF74FFA781E216B01EBFC
:101D9000800B2BF0070B7EB1002507E0715D04F18D
:101DA00034004155705D00B902E06D1C102DF5D373
:101DB00000BF002143200155B8F1050F01D34FF0BA
:101DC0000408C4F82C80201D00F0A1F904F11800CB
:101DD00000F09DF92461C8F10500A06164625246DB
:101DE0004946584600F060F920600B9808B10B98FE
:101DF0000460BDE8F09F000010B5002407E004EB8C
:101E000084010F4A02EB810000F074F9641C052C78
:101E1000F5D30C4800F06EF90B4800F06BF90B4855
:101E200000F068F90A4800F065F90A4800F062F924
:101E300004480949086004480849086010BD0000CA
:101E40001001002074010020880100209C01002066
:101E5000B0010020C4010020200000202400002048
:101E600010B50146164800E0006803688B42FBD3BA
:101E70000246436813448B4204D143684C682344B0
:101E8000436001460A464B6813440468A34211D1DB
:101E90000C4C03682468A34208D04B68046864684B
:101EA00023444B6003681B680B6005E0054B1B680F
:101EB0000B6001E003680B60884200D0016010BD38
:101EC0005C0000206400002070B5054600F03CF97D
:101ED000A86B08B9012400E0002400F047F920466F
:101EE00070BD70B5054600F02FF9A86BE96B88420C
:101EF00001D1012400E0002400F038F9204670BD33
:101F000009480068006808B9012000E0002020B1FD
:101F10004FF0FF300549086005E003480068C068DD
:101F20000068024908607047200000204C00002033
:101F300000BFBF2080F31188BFF34F8FBFF36F8FB7
:101F400000BF00BFFEE770B5044600F0FDF894F94D
:101F5000455010E0606A08B9012000E0002038B95F
:101F600004F1240000F090FD18B100F01FFA00E029
:101F700003E0681E45B2002DECDC00BFFF2084F8B2
:101F8000450000F0F3F800F0DFF894F9445010E059
:101F9000206908B9012000E0002048B904F11000D0
:101FA00000F072FD08B100F001FA681E45B200E0D1
:101FB00001E0002DECDC00BFFF2084F8440000F0BD
:101FC000D5F870BD2DE9F04705464FF0000900F047
:101FD00039FA3048006808B9FFF768FE75B105F0B6
:101FE0000700C0F11008C8F1FF30A84201D201205B
:101FF00000E0002008B9454400E00025012000EB86
:10200000E570002841D0002D3FD02348006885426C
:102010003BD8224E3046046801E0264624686068BA
:10202000A84202D220680028F7D11A4800688442EA
:102030002BD0306800F10809206830606068401BD0
:10204000102807D967196068401B786065603846BA
:10205000FFF706FF104960680968081A0E49086012
:10206000084600680E490968884203D20A48006899
:102070000B490860606840F000406060002020600C
:1020800008480068401C0749086000F081FD484688
:10209000BDE8F08764000020680000205C0000209C
:1020A0006C00002070000020001F4FF08073036060
:1020B000001F21F001030360001F034B036014386D
:1020C0000260203870470000311F000801460A698D
:1020D000D1E901309860D1E9010358605068884225
:1020E00001D188685060002008611068401E1060AF
:1020F0001068704700F1080141604FF0FF318160C6
:1021000000F10801C16001610021016070470021F8
:102110000161704710B502460B685C1C0CB9106970
:1021200007E002F1080000E04068446824689C422F
:10213000FAD944684C604C68A160886041600A61CB
:102140001468641C146010BD00BFBF2080F31188A8
:10215000BFF34F8FBFF36F8F00BF03480068401C71
:1021600001490860704700007800002006480068B8
:10217000401E054908600846006820B9002080F329
:10218000118800BF00BF70477800002070B5064678
:102190003546E6B1083D2C466068C00FB8B12068EE
:1021A000A8B9606820F00040606000F04BF9084971
:1021B000606809680844064908602046FFF750FE39
:1021C00004480068401C0349086000F0E1FC70BD51
:1021D000680000207400002000204FF0E02108611A
:1021E0008861024848610720086170473F19010073
:1021F0000FA0FFF7A5FB1AE0FFF714F90446032C24
:102200000ED10FA0FFF79CFB00231A461946144875
:10221000006800F0F9F9012802D112A0FFF790FB45
:102220000120FFF743F94FF4FA7000F099F8E3E763
:10223000C8CECEF131C6F4B6AF2E2E2E0A00000065
:102240000AC8CECEF1313A20D7BCB1B8CACDB7C595
:10225000B6FEBDF8D6C6D0C5BAC5C1BF0A000000DB
:10226000180000200AC8CECEF1313A20CACDB7C539
:10227000B6FEBDF8D6C6D0C5BAC5C1BFB3C9B9A6EA
:102280000A0000000BA0FFF75BFB11E00DA0FFF7B9
:1022900057FB17A0FFF754FB4FF0FF311C480068B5
:1022A00000F03EFA1BA0FFF74BFB22A0FFF748FB14
:1022B000ECE70000C8CECEF132C6F4B6AF2E2E2E1B
:1022C0000A0000000AC8CECEF1323A20BFAACABC2A
:1022D0002D2D2D2D2D2D2D2D2D2D2D2D2D2D2D2D2E
:1022E0002D2D2D2D2D2D2D2D2D2D2D2D2D000000A5
:1022F0000AC8CECEF1323A20D7BCB1B8BBF1C8A1E2
:10230000B6FEBDF8D6C6D0C5BAC5C1BF0A0000002A
:10231000180000200AC8CECEF1323A20BBF1C8A185
:10232000B6FEBDF8D6C6D0C5BAC5C1BFB3C9B9A639
:102330000A0000000AC8CECEF1323A20BDE1CAF848
:102340002D2D2D2D2D2D2D2D2D2D2D2D2D2D2D2DBD
:102350002D2D2D2D2D2D2D2D2D2D2D2D2D00000034
:1023600070B50446002544B100F06CF80021204609
:10237000FFF764FB00F00CFC05463DB94FF08050C0
:1023800003490860BFF34F8FBFF36F8F70BD00002C
:1023900004ED00E0034909680160034909684160F0
:1023A0007047000044000020300000200120014957
:1023B000086070474000002070B505460C4605488F
:1023C000016818312846FFF7A5FE01212046FFF7D6
:1023D00035FB70BD1C0000201CB5124800210B46C7
:1023E0008022CDE9001010A1114800F041FA044606
:1023F000012C14D100BFBF2080F31188BFF34F8F91
:10240000BFF36F8F00BF4FF0FF300A490860012013
:102410000949086000200949086000F04BF80848A5
:1024200000681CBD5000002049444C4500000000DD
:102430001D1D00084C000020380000203000002046
:102440005400002002480068401C014908607047A1
:10245000580000201248006818B101201149086096
:102460001DE000200F4908600F480068B0FA80F0B6
:10247000C0F11F0101EB81020C4B03EB82004268AB
:102480005268426000F108024368934202D14268F8
:10249000526842604268D268054B1A6000BF7047BC
:1024A00058000020400000203400002010010020CF
:1024B0001C00002010B50A48006840F47F0008495D
:1024C00008600846006840F07F400860FFF784FE1F
:1024D000002004490860FDF749FE002010BD0000FF
:1024E00020ED00E07800002010B500BFBF2080F391
:1024F0001188BFF34F8FBFF36F8F00BF00F0FCF95F
:1025000018B14FF080500449086000BF002080F3EC
:10251000118800BF10BD000004ED00E02DE9F84374
:1025200004460E4617460025DCB1681EB0FBF4F0E9
:10253000B04216D304FB06F010F1510F11D804FB82
:1025400006F909F15000FFF73DFD05464DB1A846DB
:1025500008F150083B464246314620460095FFF7B9
:10256000F1FB2846BDE8F8832DE9F04105460E460B
:1025700001272C46002C41D0E06B00283ED0B91E2C
:10258000E06BB1FBF0F0216C884237D3FFF7DCFD44
:10259000D4E90F12206801FB0200A0600020A063B4
:1025A00020686060E06B401E226C216800FB021115
:1025B000E160FF2084F8440084F845009EB920695A
:1025C00008B9012000E00020A8B904F1100000F0D3
:1025D0005BFA80B14FF080500A490860BFF34F8F1B
:1025E000BFF36F8F07E004F11000FFF783FD04F1E4
:1025F0002400FFF77FFDFFF7B9FD00E00027384614
:10260000BDE8F08104ED00E02DE9FF4383B007460B
:1026100088461D464FF000093C4600BFFFF794FD79
:10262000A06BE16B884201D3022D28D12A46414696
:102630002046FFF7FDFA0646606A08B9012000E06F
:10264000002068B904F1240000F01EFA88B14FF0B0
:10265000805032490860BFF34F8FBFF36F8F08E09F
:102660003EB14FF080502D490860BFF34F8FBFF34C
:102670006F8FFFF77BFD012007B0BDE8F083059861
:1026800018B9FFF773FD0020F6E7B9F1000F04D188
:1026900001A8FFF77FFE4FF00109FFF767FDFFF785
:1026A000D1FEFFF751FD94F94400401C10B9002001
:1026B00084F8440094F94500401C10B9002084F8C7
:1026C0004500FFF753FD05A901A800F0A1F8F0B9F6
:1026D0002046FFF706FCA0B104F110000599FFF7B2
:1026E0006BFE2046FFF72FFC00F052FA002895D130
:1026F0004FF0805009490860BFF34F8FBFF36F8FD1
:102700008CE72046FFF71FFC00F042FA86E72046E0
:10271000FFF719FC00F03CFA0020ADE704ED00E003
:10272000F3B583B0054600272C4600BFFFF70CFD2C
:10273000A66BCEB1701EA063206908B9012000E02D
:10274000002060B904F1100000F09EF938B14FF09C
:1027500080502E490860BFF34F8FBFF36F8FFFF794
:1027600005FD012005B0F0BD049818B9FFF7FEFC87
:102770000020F7E71FB901A8FFF70CFE0127FFF7BC
:10278000F5FCFFF75FFEFFF7DFFC94F94400401C07
:1027900010B9002084F8440094F94500401C10B999
:1027A000002084F84500FFF7E1FC04A901A800F02F
:1027B0002FF8F0B92046FFF787FBA0B104F1240001
:1027C0000499FFF7F9FD2046FFF7BDFB00F0E0F9A3
:1027D0000028ABD14FF080500C490860BFF34F8FF9
:1027E000BFF36F8FA2E72046FFF7ADFB00F0D0F9F3
:1027F0009CE72046FFF7A7FB00F0CAF92046FFF749
:1028000063FB002892D00020ACE7000004ED00E05C
:1028100070B506460C46FFF797FC134802687068CF
:10282000131A2068401C08B9002519E00F493068C8
:102830000968884206D07068904203D801250020BC
:1028400020600DE02068984207D92068C01A2060F7
:102850003046FFF79FFD002502E0002020600125A3
:10286000FFF784FC284670BD3000002044000020A3
:102870002DE9FF4F85B0804689461746DDE912AB4A
:10288000B800FFF79FFB064676B15420FFF79AFB8E
:1028900004462CB154212046FDF7CDFC266304E00C
:1028A0003046FFF773FC00E000247CB10020CDE946
:1028B00000ABCDE902403A4649464046089BFFF747
:1028C00056FA2046FFF71AF9012501E04FF0FF35CF
:1028D000284609B0BDE8F08F0549096809B901200B
:1028E00005E00449096809B9022000E000207047AA
:1028F00038000020580000202DE9F04100275748FB
:10290000006800287ED156480068451C5448056080
:102910008DB95448D0F80080534800685149086088
:102920005148C0F8008051480068401C4F49086079
:10293000FFF7E6FA00BF4E480068854276D300BF35
:1029400048480068006808B9012000E0002020B174
:102950004FF0FF304649086067E042480068C068B1
:10296000C4686668B54202D2414806605DE06069AD
:10297000D4E902128A60D4E902214A60211D42682A
:102980008A4201D1E1684160002262610168491E0A
:102990000160A06A98B1A06AD4E907128A60D4E9FC
:1029A00007214A6004F1180142688A4201D1216A74
:1029B00041600022A2620168491E016000BF94F8D4
:1029C0002C10012088402B490968084329490860D8
:1029D000E16A01EB8101284A02EB81014868A060AD
:1029E0008268E260211D826851608160E16A01EBCA
:1029F0008101214A02EB81026261E16A01EB8101FE
:102A00001D4A00E022E052F82110491CE26A02EB64
:102A10008202194B43F822101849E06A0968C96A12
:102A200088428DD901278BE700E000BF134800687A
:102A3000C06A00EB8000104951F82000012800D93D
:102A400001270F48006800B1012704E00D48006825
:102A5000401C0C4908603846BDE8F0815800002051
:102A6000300000202000002024000020440000202E
:102A70004C00002034000020100100201C00002029
:102A8000400000203C00002070B50346D868C168B3
:102A9000886AD1E90745A560D1E90754656001F16D
:102AA00018044568A54201D10C6A446000258D6276
:102AB0000468641E04603048006800283DD14869FD
:102AC000D1E90245A560D1E9025465600C1D456855
:102AD000A54201D1CC68446000254D610468641EA4
:102AE000046091F82C400120A040244C246820432D
:102AF000224C2060CC6A04EB8404214D05EB840455
:102B0000606888608568CD600C1D85686C60846035
:102B1000CC6A04EB84041A4D05EB84054D61CC6A44
:102B200004EB8404164D55F82440641CCD6A05EB73
:102B30008505134E46F8254010E0124C6068C861C8
:102B400085680D6201F1180485686C6084600D4D24
:102B50008D622C462468641C2C6000BF0A4CC86A35
:102B60002468E46AA04204D901220120074C2060B5
:102B700000E00022104670BD580000203400002004
:102B8000100100209C0100201C00002040000020BB
:102B900070B500240026FFF7D7FA4B480068401EA6
:102BA000494908600846006800287DD14748006808
:102BB000002879D05BE04648C068C468A06AD4E9C0
:102BC00007128A60D4E907214A6004F118014268BB
:102BD0008A4201D1216A41600022A2620168491E35
:102BE00001606069D4E902128A60D4E902214A6076
:102BF000211D42688A4201D1E16841600022626180
:102C00000168491E016094F82C1001208840314968
:102C1000096808432F490860E16A01EB81012E4AE7
:102C200002EB81014868A0608268E260211D826831
:102C300051608160E16A01EB8101274A02EB810268
:102C40006261E16A01EB8101234A52F82110491CBB
:102C5000E26A02EB8202204B43F822101F49E06A2D
:102C60000968C96A884202D301201D4908601848D2
:102C7000006808B9012000E0002000289BD00CB1BA
:102C8000FFF73EF91748056865B100BFFFF734FE4E
:102C900010B10120124908606D1E002DF6D10020F0
:102CA000104908600E4800E009E0006838B10126CC
:102CB00030070D490860BFF34F8FBFF36F8FFFF7E9
:102CC00055FA304670BD0000580000202C0000204E
:102CD0009C01002034000020100100201C00002076
:102CE000400000203C00002004ED00E00203040549
:102CF000060708090A0B0C0D0E0F10100102000048
:102D0000000000000000010203040607080900009B
:102D10000000010203040000382D0008000000201C
:102D20008000000088190008B82D000880000020ED
:102D30005849000098190008000000001000000029
:102D40000100000000127A000000000000000000F6
:102D50000000000000000000000000000000000073
:102D60000000000000000000000000000000000063
:102D70000000000000000000000000000000000053
:102D8000000000000000000000000000040000003F
:102D90000000000000000000000000000000000033
:102DA0000000000000000000000000000000000023
:082DB000AAAAAAAA0000000073
:0400000508000131BD
:00000001FF
