:020000040800F2
:10000000684A0020E1010008DD18000837160008E2
:10001000D9180008F9020008C91C000800000000F7
:10002000000000000000000000000000490100087E
:10003000FD020008000000008D01000809190008F9
:10004000FB010008FB010008FB010008FB010008A0
:10005000FB010008FB010008FB010008FB01000890
:10006000FB010008FB010008FB010008FB01000880
:10007000FB010008FB010008FB010008FB01000870
:10008000FB010008FB010008FB010008FB01000860
:10009000FB010008FB010008FB010008FF0200084B
:1000A000FB010008FB010008FB010008FB01000840
:1000B0008119000891190008FB010008FB010008E4
:1000C000FB010008FB010008FB010008FB01000820
:1000D000FB010008FB010008FB010008FB01000810
:1000E000FB010008FB010008FB010008FB01000800
:1000F000FB010008FB010008FB010008FB010008F0
:10010000FB010008FB010008FB010008FB010008DF
:10011000FB010008FB010008A1190008FB01000811
:10012000FB010008FB010008FB010008FB010008BF
:10013000DFF810D000F08EF800480047191F0008C3
:10014000AFF30080684A0020224B19680868B0E8C5
:10015000F00F80F30988BFF36F8F4FF0000080F33A
:1001600011884EF00D0E7047000000000648006830
:10017000006880F3088862B661B6BFF34F8FBFF3A3
:100180006F8F00DF00BF00BF08ED00E0EFF30980D4
:10019000BFF36F8F0F4B1A6820E9F00F106008B59E
:1001A0004FF0BF0080F31188BFF34F8FBFF36F8F05
:1001B00002F0B4FC4FF0000080F31188BDE8084065
:1001C00019680868B0E8F00F80F30988BFF36F8FF3
:1001D000704700BF1C000020EFF30580704700004F
:1001E0000648804706480047FEE7FEE7FEE7FEE7D1
:1001F000FEE7FEE7FEE7FEE7FEE7FEE77F19000801
:1002000031010008D2B201E000F8012B491EFBD2F7
:1002100070470022F6E710B513460A460446194611
:10022000FFF7F0FF204610BD30B50B460146002019
:100230002022012409E021FA02F59D4205D303FAA8
:1002400002F5491B04FA02F52844151EA2F1010229
:10025000F1DC30BD064C074D06E0E06840F00103DC
:1002600094E8070098471034AC42F6D3FFF764FFD8
:10027000C82F0008E82F00081CB502F095F91248B5
:10028000012100238022CDE9001010A1114802F0C5
:10029000A9FC1148022100238022CDE900100FA102
:1002A000104802F09FFC1048032100234FF4807295
:1002B000CDE900100DA10F4802F094FC02F086F980
:1002C00002F0EEFB1CBD0000100000207461736B97
:1002D0003100000051260008140000207461736B87
:1002E0003200000011270008180000207461736BB1
:1002F000330000004528000800BFFEE7704710B536
:100300004FF4007000F01AF810BD72B600BFFEE79F
:1003100070B5044600F0D8F906462546681C10B1B1
:1003200004480078054400BF00F0CEF9801BA842C5
:10033000FAD370BD080000207047000010B50446D5
:1003400004480068204020B1024804602046FFF7BE
:10035000F3FF10BD140401402DE9F84702460023C5
:100360009C467BE14FF0010808FA03F4D1F80080C5
:1003700008EA0400A0427DD1DFF8F4A2D1F804809D
:10038000A8EB0A09D0453AD014DCB8F1030F50D0DD
:1003900009DCB8F1000F31D0B8F1010F1CD0B8F171
:1003A000020F49D120E0B8F1110F18D0B8F1120FA7
:1003B00042D11EE0B9F5881F25D006DCB9F5803F93
:1003C00020D0B9F5801F37D11AE0B9F5001F18D039
:1003D000B9F5041F30D117E0D1F80CC02DE0D1F8E9
:1003E0000C8008F1040C28E0D1F80C8008F1080C0E
:1003F00023E0D1F80C8008F10C0C1EE000BF00BF18
:1004000000BF00BF00BF00BFD1F80880B8F1000FE7
:1004100002D14FF0040C0BE0D1F80880B8F1010FC5
:1004200003D14FF0080C146102E04FF0080C546146
:1004300003E04FF0000C00E000BF00BFFF2801D830
:10044000904601E002F104084646FF2802D84FEA30
:10045000830803E0A3F108084FEA88084746D6F866
:1004600000804FF00F0909FA07F928EA09080CFA89
:1004700007F900E07AE048EA0908C6F80080D1F8F8
:10048000048008F08058B8F1805F6FD100BFDFF8BA
:10049000E481D8F8188048F00108DFF8D891C9F84D
:1004A0001880C846D8F8188008F00108CDF80080F8
:1004B00000BF00BF4FEAB9384FEA930958F82950F6
:1004C0004FEA83784FEA18794FF00F0808FA09F8D5
:1004D00025EA0805DFF8A081424502D14FF0000867
:1004E00024E0DFF89881424502D14FF001081DE079
:1004F000DFF88C81424502D14FF0020816E0DFF8A8
:100500008481424502D14FF003080FE0DFF8788183
:10051000424502D14FF0040808E0DFF870814245FF
:1005200002D14FF0050801E04FF006084FEA837949
:100530004FEA197908FA09F848EA0505DFF8508109
:100540004FEA930948F82950D1F8048008F480183C
:10055000B8F5801F0BD1DFF83C81D8F8008048EA5D
:100560000008DFF83091C9F800800AE075E0DFF894
:100570002481D8F8008028EA0008DFF81891C9F82B
:100580000080D1F8048008F40018B8F5001F0ED1DF
:10059000DFF8008108F10408D8F8008048EA000874
:1005A000DFF8F09009F10409C9F800800DE0DFF8E8
:1005B000E48008F10408D8F8008028EA0008DFF891
:1005C000D49009F10409C9F80080D1F8048008F436
:1005D0000038B8F5003F0ED1DFF8B880A8F1040864
:1005E000D8F8008048EA0008DFF8A890A9F10409CB
:1005F000C9F800800DE0DFF89C80A8F10408D8F865
:10060000008028EA0008DFF88C90A9F10409C9F8F5
:100610000080D1F8048008F48038B8F5803F0ED10E
:10062000DFF87080A8F10808D8F8008048EA0008D0
:10063000DFF86090A9F10809C9F800800DE0DFF843
:100640005480A8F10808D8F8008028EA0008DFF8EC
:100650004490A9F10809C9F800805B1CD1F800801A
:1006600028FA03F8B8F1000F7FF47CAEBDE8F887F4
:10067000000011100010024000080140000C014071
:10068000001001400014014000180140001C01400E
:100690000800014008040140024693680B400BB17A
:1006A000012000E00020704710B5C26821EA020373
:1006B00002EA010443EA0443036110BD0AB1016187
:1006C00001E00B04036170470148006870470000B7
:1006D00000000020034800680349097808440149E4
:1006E00008607047000000200800002010B508488E
:1006F000006840F0100006490860032000F0DCF8B4
:10070000002000F007F800F05FF8002010BD0000A6
:10071000002002402DE9F04188B004460027B84689
:10072000002600BF2348C06940F010002149C8617D
:100730000846C06900F01000019000BF00BF02A988
:1007400003A800F093F9069F1FB900F0B7F905461A
:1007500002E000F0B3F945001748B5FBF0F0A0F156
:10076000010816481649086040F2E7311448C16094
:10077000C0F80480002101618160816100F078FC93
:10078000064696B90E4800F0E3FC06466EB93620E0
:1007900000F044F8102C07D200222146362000F049
:1007A0004DF80848046000E00126304608B0BDE876
:1007B000F08100000010024040420F000010004095
:1007C000580100200400002008B500BF11488069CE
:1007D00040F001000F4988610846806900F001007F
:1007E000009000BF00BF00BF0846C06940F08050C5
:1007F000C8610846C06900F08050009000BF00BF8B
:1008000000BF0549486820F0E06040F00070486093
:1008100000BF08BD0010024000000140014608462C
:10082000002809DB00F01F0301229A4043099B00C6
:1008300003F1E023C3F8002100BF70472DE9F05F0A
:1008400080460D461646002701F050FA0746394605
:100850002A46334601F00700C0F1070ABAF1040F37
:1008600002D94FF0040A01E0C0F1070AD14600F1B5
:10087000040ABAF1070F02D24FF0000A01E0A0F11A
:10088000030AD4464FF0010A0AFA09FAAAF1010A4A
:100890000AEA020A0AFA0CFA4FF0010B0BFA0CFBF7
:1008A000ABF1010B0BEA030B4AEA0B04214640466D
:1008B00001F024FABDE8F09F00BF00F00702064BEC
:1008C00019684FF6FF031940044B0B4343EA02211A
:1008D000014B196000BF70470CED00E00000FA0505
:1008E00070B504460D460CB9012070BD5A48006829
:1008F00000F00700A8420ED25748006820F0070019
:100900002843554908600846006800F00700A842DF
:1009100001D00120E9E7207800F0020002281DD173
:10092000207800F00400042805D14C48406840F4C9
:10093000E0604A494860207800F00800082805D1A6
:100940004648406840F46050444948604348406825
:1009500020F0F000A168084340494860207800F08A
:10096000010078B36068012806D13C48006800F4B3
:10097000003090B90120B8E76068022806D13748F6
:10098000006800F0007040B90120AEE7334800680D
:1009900000F0020008B90120A7E73048406820F0C5
:1009A0000300616808432D494860FFF78DFE064645
:1009B00009E0FFF789FE801B41F28831884202D9A5
:1009C000032092E707E02548406800F00C006168CA
:1009D000B0EB810FEDD12048006800F00700A8427D
:1009E0000ED91D48006820F0070028431A49086006
:1009F0000846006800F00700A84201D0012074E713
:100A0000207800F00400042807D11448406820F43E
:100A1000E060E168084311494860207800F0080070
:100A2000082808D10D48406820F46050216940EA48
:100A3000C1000A49486000F061F808494968C1F3FB
:100A40000311074A515CC84006490860064800681F
:100A5000FFF760FE002048E700200240001002403F
:100A60006A2F00080C000020040000200F22026002
:100A70000D4A526802F0030242600B4A526802F0CB
:100A8000F0028260084A526802F4E062C260064ADC
:100A9000526802F46052D2080261044A126802F0FD
:100AA00007020A6070470000001002400020024068
:100AB00001480068704700000C00002000B5FFF7F7
:100AC000F7FF04494968C1F30221034A515CC84059
:100AD00000BD0000001002407A2F000800B5FFF7AB
:100AE000E7FF04494968C1F3C221034A515CC84089
:100AF00000BD0000001002407A2F000870B50021F0
:100B00000022002400230020134D696801F00C0529
:100B1000F5B1042D02D0082D19D101E00F4819E0DC
:100B20000F4DC1F38346AB5D01F4803555B10A4DDD
:100B30006D68C5F340450B4E725D084D5D43B5FBD6
:100B4000F2F402E0084D03FB05F4204602E000BF8A
:100B5000024800BF00BF70BD0010024000127A00C2
:100B6000582F0008682F000800093D00F8B504461A
:100B70000CB90120F8BD207800F00100002878D0E1
:100B8000F848406800F00C0004280CD0F548406894
:100B900000F00C00082811D1F248406800F48030C1
:100BA000B0F5803F0AD1EF48006800F4003000281B
:100BB0005FD0606800285CD10120DBE700BF60687F
:100BC000B0F5803F06D1E748006840F48030E54941
:100BD000086028E0606858B9E248006820F4803076
:100BE000E04908600846006820F4802008601AE0A8
:100BF0006068B0F5A02F0BD1DA48006840F480207F
:100C0000D84908600846006840F4803008600AE06F
:100C1000D448006820F48030D24908600846006853
:100C200020F48020086000BF606888B1FFF74CFDA9
:100C3000054606E0FFF748FD401B642801D9032064
:100C400098E7C848006800F400300028F2D010E0AF
:100C5000FFF73AFD054606E0FFF736FD401B642826
:100C600001D9032086E7BF48006800F4003000285F
:100C7000F2D1207800F00200022857D1B94840682C
:100C800000F00C0050B1B748406800F00C00082894
:100C900018D1B448406800F4803098B9B148006871
:100CA00000F0020020B12069012801D0012061E795
:100CB000AC48006820F0F800616940EAC100A94929
:100CC000086033E02069E8B10120A7490860FFF718
:100CD000FBFC054606E0FFF7F7FC401B022801D9A4
:100CE000032047E79F48006800F002000028F2D088
:100CF0009C48006820F0F800616940EAC100994909
:100D0000086013E0002098490860FFF7DDFC054605
:100D100006E0FFF7D9FC401B022801D9032029E790
:100D20009048006800F002000028F2D1207800F01E
:100D3000080008282DD1A069B8B101208B490860AE
:100D4000FFF7C2FC054606E0FFF7BEFC401B022889
:100D500001D903200EE78348406A00F00200002812
:100D6000F2D0012000F0BCFD13E000207F490860B4
:100D7000FFF7AAFC054606E0FFF7A6FC401B022889
:100D800001D90320F6E67748406A00F00200002807
:100D9000F2D1207800F00400042873D100277148B4
:100DA000C06900F0805070B900BF6E48C06940F063
:100DB00080506C49C8610846C06900F080500090BE
:100DC00000BF00BF01276A48006800F48070B0B916
:100DD0006748006840F4807065490860FFF774FC5C
:100DE000054606E0FFF770FC401B642801D903208C
:100DF000C0E65F48006800F480700028F2D000BFB1
:100E0000E068012806D15748006A40F001005549C2
:100E1000086227E0E06858B95248006A20F00100F3
:100E2000504908620846006A20F00400086219E090
:100E3000E06805280BD14B48006A40F0040049499E
:100E400008620846006A40F0010008620AE045486E
:100E5000006A20F00100434908620846006A20F059
:100E60000400086200BFE068A0B1FFF72DFC054652
:100E700009E0FFF729FC401B41F28831884202D982
:100E8000032077E622E03748006A00F002000028DD
:100E9000EFD012E0FFF718FC054608E0FFF714FC5E
:100EA000401B41F28831884201D9032062E62D4877
:100EB000006A00F002000028F0D1012F05D1294876
:100EC000C06920F080502749C86100BFE069C8B3FD
:100ED0002448406800F00C00082860D0E06902282F
:100EE00048D1002020490866FFF7EEFB054606E0E2
:100EF000FFF7EAFB401B022801D903203AE6194814
:100F0000006800F000700028F2D1206AB0F5803F40
:100F100007D11448406820F40030A1680843114903
:100F20004860D4E9080108430E49496821F4741166
:100F300008430C49486001200B490866FFF7C4FBD1
:100F4000054607E03DE0FFF7BFFB401B022801D943
:100F500003200FE60348006800F000700028F2D07C
:100F60002FE0000000100240000042428004424294
:100F700000700040002014490866FFF7A5FB0546F5
:100F800006E0FFF7A1FB401B022801D90320F1E591
:100F90000E48006800F000700028F2D111E0E0690E
:100FA000012800D1E6E50948466806F48031206A48
:100FB000814204D106F47011606A814201D001209F
:100FC000D8E50020D6E500000000424200100240B3
:100FD0007047704730B502460B4600BF92F83C00A0
:100FE000012801D1022030BD012082F83C0000BF61
:100FF000022082F83D00106844681068816824F07F
:1010000070041868044310684460144D1068A842C6
:1010100013D0134D1068A8420FD01068B0F1804F64
:101020000BD0104D1068A84207D00F4D1068A84291
:1010300003D00E4D1068A84205D121F080015868F8
:10104000014310688160012082F83D0000BF00204C
:1010500082F83C0000BF00BFC5E70000002C014043
:10106000003401400004004000080040000C004033
:1010700010B504460CB9012010BD94F83D0028B904
:10108000002084F83C00204600F026F8022084F876
:101090003D00211D206800F08BFC012084F84600F3
:1010A00000BF84F83E0001213F200155402001553A
:1010B0004120015500BF00BF012084F842004320B9
:1010C0000155442001554520015500BF012084F8F9
:1010D0003D000020D0E7000038B504462068B0F19C
:1010E000804F16D100BF1848C06940F00100164972
:1010F000C8610846C06900F00100009000BF00BF51
:10110000002204211C20FFF799FB1C20FFF786FB1F
:1011100019E00E492068884215D100BF0A48C0690D
:1011200040F002000849C8610846C06900F00200AA
:10113000009000BF00BF002206211D20FFF77EFBAC
:101140001D20FFF76BFB38BD00100240000400407B
:10115000014691F83D00012801D00120704702208E
:1011600081F83D000868C06840F001000B68D86055
:10117000164B0868984213D0154B086898420FD058
:101180000868B0F1804F0BD0124B0868984207D026
:10119000114B0868984203D0104B086898420CD154
:1011A0000868806800F00702062A0CD0086800680A
:1011B00040F001000B68186005E00868006840F026
:1011C00001000B6818600020C8E70000002C0140F7
:1011D000003401400004004000080040000C0040C2
:1011E0002DE9F04104460D46002700BF94F83C006D
:1011F000012802D10220BDE8F081012084F83C00E2
:1012000000BF022084F83D002068866826F077063B
:1012100026F47F46206886602868502833D00CDC8E
:10122000202850D004DC00284BD0102851D149E0B0
:10123000302849D040284CD139E060282DD0702882
:1012400007D0B0F5805F03D0B0F5005F41D10DE06D
:1012500041E0D5E902136A68206800F0FFFB2068CE
:10126000866846F077062068866034E0D5E9021388
:101270006A68206800F0F2FB2068806840F48040D3
:101280002168886027E0EA686968206800F0FAFB56
:101290005021206800F0EDFB1DE0EA6869682068D5
:1012A00000F003FC6021206800F0E3FB13E0EA6833
:1012B0006968206800F0E6FB4021206800F0D9FB57
:1012C00009E000BF00BF00BF2968206800F0D1FB23
:1012D00001E0012700BF00BF012084F83D0000BFEE
:1012E000002084F83C0000BF384684E7704770B5A2
:1012F00004462068C5682068066906F002000228D6
:1013000019D105F00200022815D1401F216808619B
:10131000012020772068806900F0030018B1204682
:10132000FFF7E4FF05E0204600F097F8204600F0C4
:1013300095F80020207706F00400042819D105F064
:101340000400042815D1C0432168086102202077D9
:101350002068806900F4407018B12046FFF7C6FF8E
:1013600005E0204600F079F8204600F077F80020EC
:10137000207706F00800082819D105F00800082891
:1013800015D1C04321680861042020772068C06916
:1013900000F0030018B12046FFF7A8FF05E0204643
:1013A00000F05BF8204600F059F80020207706F0A6
:1013B0001000102819D105F01000102815D1C043D5
:1013C00021680861082020772068C06900F4407017
:1013D00018B12046FFF78AFF05E0204600F03DF8EF
:1013E000204600F03BF80020207706F0010048B1CD
:1013F00005F0010030B16FF001002168086120465E
:1014000000F02EF806F08000802809D105F0800059
:10141000802805D1C043216808612046FFF7D8FD28
:1014200006F04000402809D105F04000402805D1D1
:10143000C04321680861204600F01EF806F0200035
:10144000202809D105F02000202805D1C0432168BB
:1014500008612046FFF7BDFD70BD70477047000072
:1014600010B5044603492068884201D1FFF732F9DC
:1014700010BD000000100040704710B504460CB9C4
:10148000012010BDA06900B100E000BF94F8410048
:1014900028B9002084F84000204600F029F82420D4
:1014A00084F841002068C06820F400502168C860BA
:1014B000204600F045FB2068006920F49040216838
:1014C00008612068406920F02A002168486120688E
:1014D000C06840F400502168C8600020606420208B
:1014E00084F8410084F842000020606300BFC8E730
:1014F00010B586B004460020029003900490059039
:101500001A49206888422ED100BF1948806940F4EA
:101510008040174988610846806900F48040019046
:1015200000BF00BF00BF0846806940F0040088612A
:101530000846806900F00400019000BF00BF481514
:101540000290022003900320059002A90948FEF7AB
:1015500003FF4FF48060029000200390049002A9E2
:101560000448FEF7F9FE06B010BD00000038014047
:1015700000100240000801402DE9F84F04460E46D5
:10158000174699464FF0000A94F84100202850D1A0
:1015900006B117B90120BDE8F88F00206064212052
:1015A00084F84100FFF790F88246A784E784A0689A
:1015B000B0F5805F04D1206910B90025B04602E083
:1015C00035464FF000081EE0534600228021204699
:1015D000CDF8009000F032FB20B1202084F84100CB
:1015E0000320D8E745B9B8F80000C0F30800216827
:1015F000486008F1020803E02878216848606D1C03
:10160000E08C401EE084E08C0028DDD153460022AF
:1016100040212046CDF8009000F010FB20B12020A2
:1016200084F841000320B6E7202084F84100002020
:10163000B1E70220AFE700BFFEE7000010B54FF4AE
:1016400080711F48FFF728F898B14FF400711C48CB
:10165000FFF722F868B14FF480611948FFF71CF8D2
:10166000012806D04FF400611548FFF715F801284E
:1016700024D10A20FEF74CFE4FF480711048FFF78A
:101680000BF808B9032010BD4FF400710C48FFF7A8
:1016900003F808B90420F6E74FF480610848FEF724
:1016A000FBFF012801D10520EDE74FF4006104485C
:1016B000FEF7F2FF012801D10620E4E70020E2E76F
:1016C000001C014010B5044621460248FEF7ECFF1D
:1016D00010BD00000008014000B585B00020019059
:1016E00002900390049000BF3248806940F01000DF
:1016F000304988610846806900F01000009000BF02
:1017000000BF00BF0846806940F08000886108463D
:10171000806900F08000009000BF00BF00BF084655
:10172000806940F0040088610846806900F0040088
:10173000009000BF00BF012240F203111E48FEF7D7
:10174000BDFF4FF4807001900020029001200390B3
:1017500001A91A48FEF700FE4FF4007001901848E6
:1017600002900120039001A91448FEF7F5FD4FF403
:1017700040600190002002900220039001A90F48D0
:10178000FEF7EAFD40F203100190012002900020D4
:1017900003900320049001A90748FEF7DDFD002215
:1017A00006211720FFF74AF81720FFF737F805B092
:1017B00000BD00000010024000080140001C014074
:1017C0000000211000B587B0002003900490059020
:1017D0000690019002904FF080401449086041F655
:1017E0001F40486000211148816042F20F71C160C2
:1017F000002101618161FFF73BFC08B1FEF785FD27
:101800004FF48050039003A90848FFF7E9FC08B1A2
:10181000FEF77BFD00200190029001A90348FFF72D
:10182000D9FB08B1FEF771FD07B000BD80000020B4
:1018300000B587B0002003900490059006900190B9
:10184000029015481549086041F61F404860002184
:101850001248816042F20F71C16000210161816113
:10186000FFF706FC08B1FEF750FD4FF480500390DF
:1018700003A90A48FFF7B4FC08B1FEF746FD0020B3
:101880000190029001A90548FFF7A4FB08B1FEF7FB
:101890003CFD07B000BD000000040040C80000206F
:1018A00010B50B480B4908604FF4E1304860002147
:1018B00008488160C16001610C21416100218161A2
:1018C000C161FFF7DAFD08B1FEF71FFD10BD000092
:1018D000003801401001002000BFFEE700BFFEE716
:1018E00008B508490968C9084FF47A72B1FBF2F1EA
:1018F0004143009100BF00BF00994A1E0092002999
:10190000F9D108BD0C00002010B501F09FF90128A5
:1019100001D001F04DF910BD00B58FB0282105A808
:10192000FEF777FC14216846FEF773FC0120059052
:1019300000040690002007900120099002200C90DE
:10194000C1030D914FF4E0110E9105A8FFF70EF9B8
:1019500008B1FEF7DAFC0F20009002200190002071
:1019600002904FF4806003900020049002216846AA
:10197000FEF7B6FF08B1FEF7C8FC0FB000BD704718
:1019800010B50248FFF7B3FC10BD00008000002036
:1019900010B50248FFF7ABFC10BD0000C8000020E6
:1019A00010B50248FFF7A3FC10BD0000580100204D
:1019B00010B50268244B98420ED0244B98420BD0AD
:1019C000B0F1804F08D0224B984205D0214B98426D
:1019D00002D0214B984203D122F070024B681A4387
:1019E000194B98420ED0194B98420BD0B0F1804F52
:1019F00008D0174B984205D0164B984202D0164B90
:101A0000984203D122F44072CB681A4322F080033B
:101A10004C6943EA040202608B68C3620B6883620C
:101A2000094B984202D0094B984201D10B690363DC
:101A300001234361036903F001031BB1036923F030
:101A40000103036110BD0000002C0140003401407F
:101A50000004004000080040000C004030B50C4677
:101A6000816821F47F4142EA0325254329438160AF
:101A700030BD0A46816821F0700142F00703194326
:101A80008160704730B50B461446026A056A25F03E
:101A900001050562816921F0F00141EA041122F09B
:101AA0000A021A438161026230BD30B50B4614460A
:101AB000026A056A25F010050562816921F470410A
:101AC00041EA043122F0A00242EA0312816102627B
:101AD00030BD00BF00BF02680C3252E8002F22F474
:101AE000907102680C3242E80013002BF3D100BF62
:101AF00000BF00BF0268143252E8002F22F001013B
:101B00000268143242E80013002BF3D100BF016BCE
:101B100001290ED100BF00BF02680C3252E8002F2D
:101B200022F0100102680C3242E80013002BF3D1BE
:101B300000BF202180F8421000210163704700009F
:101B400070B504462168096921F44051E2681143E7
:101B5000226811612269A1681143626941EA0205A4
:101B60002168C96841F20C62914329432268D1601F
:101B70002168496921F44071A269114322685161C9
:101B80002D4A2168914202D1FEF7A8FF01E0FEF73D
:101B900095FF00EBC00101EB001162689200B1FB00
:101BA000F2F100EBC00202EB001263689B00B2FB93
:101BB000F3F26423B2FBF3F202EBC20303EB021273
:101BC000A1EB8201322202EB01116422B1FBF2F19E
:101BD00001F0F00100EBC00202EB001263689B0011
:101BE000B2FBF3F26423B2FBF3F201EB021200EB5F
:101BF000C00101EB001163689B00B1FBF3F100EB46
:101C0000C00303EB00136668B600B3FBF6F364266B
:101C1000B3FBF6F303EBC30606EB0313A1EB83015F
:101C2000322303EB01116423B1FBF3F101F00F0147
:101C300011442268916070BD003801402DE9F843DD
:101C400004460D4617469846089E31E0701C70B356
:101C5000FEF73AFDA0EB0800B04200D816B9032009
:101C6000BDE8F8832068C06800F00400F8B1802D5A
:101C70001ED0402D1CD020680068C0F3C000B0B159
:101C800000BF002000902068006800902068406835
:101C9000009000BF00BF2046FFF71BFF08206064D4
:101CA00000BF002084F8400000BF0120D8E7FFE714
:101CB000206800682840A84201D1012000E00020EF
:101CC000B842C3D00020CBE700BFFEE70FB4054BFE
:101CD00010B503A9044A029800F034F810BC5DF86E
:101CE00014FB0000FD1E00087C0000200248006874
:101CF000C0F30220704700000CED00E010B5002892
:101D000004DB0A07130E054A135406E00A07140EF3
:101D1000034A00F00F031B1FD45410BD00E400E081
:101D200018ED00E002E008C8121F08C1002AFAD12D
:101D300070477047002001E001C1121F002AFBD14B
:101D4000704700002DE9FF4F8BB09A460F460546BD
:101D5000002606E025280BD052460D9990476D1CB1
:101D6000761C28780028F5D10FB03046BDE8F08FFA
:101D70000024A0460122604900E0044315F8013F19
:101D8000203B02FA03F00842F7D128782E2817D119
:101D900015F8010F44F004042A280ED06FF02F022A
:101DA0002878A0F1300109290AD808EB880102EB54
:101DB000410100EB01086D1CF2E757F8048B6D1C24
:101DC000287869283ED006DC0028CDD063280BD0C7
:101DD000642804D136E0732810D075284BD05246C1
:101DE0000D999047761C85E017F8040B8DF80000DC
:101DF00000208DF80100E946012003E057F8049B1C
:101E00004FF0FF3061074FF0000401D40AE0641C7A
:101E100044450DDA8442FADB19F804100029F6D1A2
:101E200006E0641C8442FCDB19F804100029F8D198
:101E3000264404E019F8010B52460D999047641EA0
:101E4000F8D257E001CF4FF00A0B002802DA4042E7
:101E50002D2102E0210504D52B218DF8241001212C
:101E600003E0E10705D02021F7E70DF120090891F3
:101E70000CE00021F9E701CF4FF00A0BF9E75946D2
:101E8000FEF7D2F901F1300209F8012D0028F6D150
:101E9000ADEB090000F1200B600701D44FF0010801
:101EA000D84502DDA8EB0B0000E0002080460024AE
:101EB00006E009A85246005D0D999047641C761C07
:101EC00008988442F5DB04E0302052460D99904793
:101ED000761CB8F10001A8F10108F5DC05E019F85D
:101EE000010B52460D999047761CBBF10001ABF1F6
:101EF000010BF4DC6D1C34E70928010013B50C4616
:101F00004FF6FF73012269460248FFF735FB009840
:101F10001CBD000010010020FEF7E8FBFFF7FCFCF1
:101F2000FFF7DAFBFFF7BCFCFFF74CFCFFF780FC88
:101F300004A0FFF7CBFEFEF79FF909A0FFF7C6FE4E
:101F400000BFFEE74672656552544F5320457861E5
:101F50006D706C652053746172743A200A00000041
:101F60004672656552544F53204578616D706C65BB
:101F700020456E643A200A002DE9F04105460E46E0
:101F80002648076826480068001D00F0A3FA50B9EB
:101F90002348006890F82C100120884021490968E6
:101FA000814320480160681CD8B9D6B11E494868F1
:101FB0001B49096888601A4982680968CA6018491B
:101FC0000968091D8268516015490968091D816009
:101FD000154A134909684A6111460968491C11608C
:101FE0001AE07C190E4800684460BC4207D20C48D5
:101FF0000168091D0D48006800F0BCFA0CE00848B3
:102000000168091D0A48006800F0B4FA0948006830
:10201000844201D207480460BDE8F081300000200E
:102020001C00002034000020540200202400002066
:10203000200000204C00002010B5044600F0B4FA47
:1020400031480068401C304908603048006840B999
:102050002E4804600846006801280DD100F020F9E0
:102060000AE02B48006838B928480068C06AE16A6D
:10207000884201D82548046026480068401C25494C
:10208000086008460068606494F82C1001208840BD
:1020900021490968084320490860E16A01EB810190
:1020A0001E4A02EB81014868A0608268E260211D3F
:1020B000826851608160E16A01EB8101174A02EB9D
:1020C00081026261E16A01EB8101144A52F8211038
:1020D000491CE26A02EB8202104B43F8221000F026
:1020E00075FA0B48006868B108480068C06AE16A80
:1020F000884207D24FF0805009490860BFF34F8FE4
:10210000BFF36F8F10BD00002C0000201C000020CA
:10211000380000204800002034000020A0010020EA
:1021200004ED00E010B516E000F03EFA0C48C0687F
:10213000C468201D00F0CEF90A480068401E094915
:10214000086009480068401E0749086000F03EFA30
:10215000204600F00BF8044800680028E4D110BDC8
:10216000400200202C0000202800002010B504466A
:10217000206B00F03BFA204600F038FA10BD00005A
:1021800030B54FF48843154800F007042CB1C01D4A
:1021900020F00700114C041B1B1B0246104C226050
:1021A00000240F4D6C60D018083820F007000D4C4B
:1021B000206000240B4D2D686C600A4D2D682C604A
:1021C0001146441A4C60074C24680C60064D4C685C
:1021D0002C60064D4C682C6030BD00006802002069
:1021E0005C000020640000206C00002068000020DB
:1021F00000BFFFF797FF064800680128F9D94FF0A4
:10220000805004490860BFF34F8FBFF36F8FF0E732
:10221000A001002004ED00E02DE9F05F81460E46AC
:1022200017469A46DDF828800C9CB900A522206B41
:10223000FDF7E8FF781E216B01EB800B2BF0070BFD
:102240007EB1002507E0715D04F134004155705DF9
:1022500000B902E06D1C102DF5D300BF0021432012
:102260000155B8F1050F01D34FF00408C4F82C80D4
:10227000201D00F07CF904F1180000F078F92461C9
:10228000C8F10500A061646252464946584600F014
:102290000FF920600B9808B10B980460BDE8F09F1F
:1022A00010B5002407E004EB84010F4A02EB810023
:1022B00000F050F9641C052CF5D30C4800F04AF9E5
:1022C0000B4800F047F90B4800F044F90A4800F0C9
:1022D00041F90A4800F03EF90448094908600448F9
:1022E0000849086010BD0000A00100200402002081
:1022F000180200202C02002040020020540200207E
:10230000200000202400002010B50146164800E0FF
:10231000006803688B42FBD30246436813448B4238
:1023200004D143684C682344436001460A464B6825
:1023300013440468A34211D10C4C03682468A342DF
:1023400008D04B680468646823444B6003681B68CA
:102350000B6005E0054B1B680B6001E003680B6038
:10236000884200D0016010BD5C00002064000020A5
:1023700009480068006808B9012000E0002020B189
:102380004FF0FF300549086005E003480068C06869
:102390000068024908607047200000204C000020BF
:1023A0000246002101E0521C491C1078A528FAD0F1
:1023B000890888B2704700BFBF2080F31188BFF33F
:1023C0004F8FBFF36F8F00BF00BFFEE72DE9F047CF
:1023D00005464FF0000900F099FB3048006808B945
:1023E000FFF7CEFE75B105F00700C0F11008C8F187
:1023F000FF30A84201D2012000E0002008B9454486
:1024000000E00025012000EBE570002841D0002D00
:102410003FD02348006885423BD8224E30460468AE
:1024200001E0264624686068A84202D2206800289D
:10243000F7D11A48006884422BD0306800F10809AF
:10244000206830606068401B102807D967196068F1
:10245000401B786065603846FFF756FF104960689A
:102460000968081A0E490860084600680E4909689C
:10247000884203D20A4800680B490860606840F04F
:10248000004060600020206008480068401C074948
:10249000086000F0B3FC4846BDE8F0876400002007
:1024A000680000205C0000206C000020700000200C
:1024B000001F4FF080730360001F21F001030360D1
:1024C000001F034B0360143802602038704700007F
:1024D000B723000801460A69D1E901309860D1E9C3
:1024E000010358605068884201D18868506000201C
:1024F00008611068401E106010687047014800684D
:10250000704700002C0000202DE9F041044614B96A
:102510000648006800E0204607463D6B2846FFF766
:102520003FFF06463046BDE8F08100001C00002059
:1025300070B5044600F038F814B90548006800E0AA
:1025400020460646F56A00F041F8284670BD0000B6
:102550001C00002000F1080141604FF0FF31816054
:1025600000F10801C1600161002101607047002194
:102570000161704710B502460B685C1C0CB910690C
:1025800007E002F1080000E04068446824689C42CB
:10259000FAD944684C604C68A160886041600A6167
:1025A0001468641C146010BD00BFBF2080F3118844
:1025B000BFF34F8FBFF36F8F00BF03480068401C0D
:1025C0000149086070470000780000200648006854
:1025D000401E054908600846006820B9002080F3C5
:1025E000118800BF00BF70477800002070B5064614
:1025F0003546E6B1083D2C466068C00FB8B120688A
:10260000A8B9606820F00040606000F07FFA0849D7
:10261000606809680844064908602046FFF774FEB0
:1026200004480068401C0349086000F0E7FB70BDE7
:10263000680000207400002000204FF0E0210861B5
:102640008861024848610720086170473F1901000E
:102650000AA0FFF73BFB0FE00CA0FFF737FB19A028
:10266000FFF734FB0120FFF72DF81BA0FFF72EFB2F
:102670004FF47A7000F06CF9EEE70000C8CECEF1AE
:1026800031C6F4B6AF2E2E2E0A0000000A2D2D2DD5
:102690002D2D2D2D2D2D2D2D2D2D2D2D2DC8CECE8D
:1026A000F131D5FDD4DAD6B4D0D0202D2D2D2D2D5D
:1026B0002D2D2D2D2D2D2D2D2D2D2D2D2D2D2D2D4A
:1026C0000A000000C8CECEF131D5FDD4DAD6B4D0A0
:1026D000D02E2E2E0A0000002D2D2D2D2D2D2D2D2E
:1026E0002D2D2D2D2D2D2D2D2D2DC8CECEF131D6CC
:1026F000B4D0D0BDE1CAF8202D2D2D2D2D2D2D2D9E
:102700002D2D2D2D2D2D2D2D2D2D2D2D2D0A000076
:1027100019A0FFF7DBFA2EE01BA0FFF7D7FAFFF7AF
:10272000EDFE0446214626A0FFF7D0FA2A480068AD
:10273000FFF7FEFE044629480068FFF7F9FE05464C
:102740002246294626A0FFF7C1FA23480068FFF772
:10275000DBFE044621480068FFF7D6FE0546224608
:1027600029462948FFF7B2FA28A0FFF7AFFA4FF43D
:102770007A7000F0EDF8CFE7C8CECEF132C6F4B6ED
:10278000AF2E2E2E0A0000000A2D2D2D2D2D2D2DC1
:102790002D2D2D2D2D2D2D2D2DC8CECEF132D5FD4B
:1027A000D4DAD6B4D0D0202D2D2D2D2D2D2D2D2D9C
:1027B0002D2D2D2D2D2D2D2D2D2D2D2D0A000000F3
:1027C000CFB5CDB3D6D0B5C4C8CECEF1CAFDC1BF4A
:1027D000A3BA2564200A0000140000201000002085
:1027E000C8CECEF131B5C4D3C5CFC8BCB63A2025CA
:1027F000643B20C8CECEF132B5C4D3C5CFC8BCB679
:102800003A202564200A0000842F00082D2D2D2D4C
:102810002D2D2D2D2D2D2D2D2D2D2D2D2D2DC8CEAC
:10282000CEF132D6B4D0D0BDE1CAF8202D2D2D2D59
:102830002D2D2D2D2D2D2D2D2D2D2D2D2D2D2D2DC8
:102840002D0A00000FA0FFF741FA19E011A0FFF7D1
:102850003DFA1EA0FFF73AFAFEF7F0FE0446032CFD
:1028600007D11FA0FFF732FA04212A48006800F0C0
:1028700089F829A0FFF72AFA4FF4FA7000F068F8F7
:10288000E4E70000C8CECEF133C6F4B6AF2E2E2E4C
:102890000A0000000A2D2D2D2D2D2D2D2D2D2D2D35
:1028A0002D2D2D2D2DC8CECEF133D5FDD4DAD6B4B5
:1028B000D0D0202D2D2D2D2D2D2D2D2D2D2D2D2D0F
:1028C0002D2D2D2D2D2D2D2D0A000000C8CECEF141
:1028D00033D5FDD4DAD6B4D0D02E2E2E0A00000087
:1028E0000AB0B4BCFC535733B0B4CFC22C20D0DEF6
:1028F000B8C4C8CECEF131B5C4D3C5CFC8BCB6CEEE
:10290000AA34203E3E3E3E3E3E3E3E3E3E3E200AF5
:1029100000000000100000200A2D2D2D2D2D2D2D42
:102920002D2D2D2D2D2D2D2D2DC8CECEF133D5FDB8
:10293000D4DABDE1CAF8202D2D2D2D2D2D2D2D2DD4
:102940002D2D2D2D2D2D2D2D2D2D2D2D0A00000061
:1029500070B50446002544B100F0D8F800212046A7
:10296000FFF70AFB00F04AFA05463DB94FF08050E8
:1029700003490860BFF34F8FBFF36F8F70BD000036
:1029800004ED00E02DE9F04780460D464FF00009C8
:10299000052D00D30425FFF707FEB8F1000F02D183
:1029A0003B48006800E040460446E66AAE426BD011
:1029B000B5420BD93648006884420DD034480068CF
:1029C000C06AA84208D84FF0010905E03048006805
:1029D000844201D14FF00109E76AE562A06900F085
:1029E000004010B9C5F10500A06107EB8701294A35
:1029F00002EB81016069884201D1012000E00020E2
:102A0000B0B3201DFFF766FD30B90120B840224960
:102A1000096881432048016094F82C100120884007
:102A20001D49096808431C490860E16A01EB8101FE
:102A3000184A02EB81014868A0608268E260211DAB
:102A4000826851608160E16A01EB8101114A02EB09
:102A500081026261E16A01EB81010E4A52F82110A4
:102A6000491CE26A02EB82020A4B43F8221000BFC3
:102A7000B9F1000F07D04FF0805008490860BFF34C
:102A80004F8FBFF36F8F00BFFFF7A0FDBDE8F0874A
:102A90001C000020A00100203400002004ED00E014
:102AA0001CB5124800210B468022CDE9001010A170
:102AB000114800F097F80446012C14D100BFBF2044
:102AC00080F31188BFF34F8FBFF36F8F00BF4FF0BC
:102AD000FF300A49086001200949086000200949BF
:102AE000086000F04BF8084800681CBD500000204A
:102AF00049444C4500000000F12100084C00002032
:102B000038000020300000205400002002480068F7
:102B1000401C0149086070475800002012480068B6
:102B200018B10120114908601DE000200F4908601C
:102B30000F480068B0FA80F0C0F11F0101EB81027C
:102B40000C4B03EB820042685268426000F10802BD
:102B50004368934202D14268526842604268D26838
:102B6000054B1A6000BF704758000020400000204D
:102B700034000020A00100201C00002010B50A48ED
:102B8000006840F47F00084908600846006840F08B
:102B90007F400860FFF750FD002004490860FDF702
:102BA000E5FA002010BD000020ED00E078000020D4
:102BB00010B500BFBF2080F31188BFF34F8FBFF364
:102BC0006F8F00BF00F052F818B14FF080500449E9
:102BD000086000BF002080F3118800BF10BD000016
:102BE00004ED00E02DE9FF4F85B080468946174689
:102BF000DDE912ABB800FFF7E9FB064676B15420D9
:102C0000FFF7E4FB04462CB154212046FDF701FBFD
:102C1000266304E03046FFF7E9FC00E000247CB1C5
:102C20000020CDE900ABCDE902403A464946404696
:102C3000089BFFF7F1FA2046FFF7FEF9012501E0B6
:102C40004FF0FF35284609B0BDE8F08F0549096807
:102C500009B9012005E00449096809B9022000E02A
:102C60000020704738000020580000202DE9F04176
:102C700000275748006800287ED156480068451C48
:102C8000544805608DB95448D0F800805348006816
:102C9000514908605148C0F8008051480068401C04
:102CA0004F490860FFF764FB00BF4E48006885424B
:102CB00076D300BF48480068006808B9012000E0EA
:102CC000002020B14FF0FF304649086067E04248DD
:102CD0000068C068C4686668B54202D241480660B0
:102CE0005DE06069D4E902128A60D4E902214A6099
:102CF000211D42688A4201D1E1684160002262617F
:102D00000168491E0160A06A98B1A06AD4E907125F
:102D10008A60D4E907214A6004F1180142688A42B6
:102D200001D1216A41600022A2620168491E01604E
:102D300000BF94F82C10012088402B4909680843F3
:102D400029490860E16A01EB8101284A02EB81010F
:102D50004868A0608268E260211D826851608160DD
:102D6000E16A01EB8101214A02EB81026261E16AC1
:102D700001EB81011D4A00E022E052F82110491CBC
:102D8000E26A02EB8202194B43F822101849E06A0A
:102D90000968C96A88428DD901278BE700E000BF26
:102DA00013480068C06A00EB8000104951F8200009
:102DB000012800D901270F48006800B1012704E06D
:102DC0000D480068401C0C4908603846BDE8F08199
:102DD00058000020300000202000002024000020A7
:102DE000440000204C00002034000020A0010020FE
:102DF0001C000020400000203C00002070B5002492
:102E00000026FFF7D1FB4B480068401E4949086087
:102E10000846006800287DD147480068002879D01E
:102E20005BE04648C068C468A06AD4E907128A60BB
:102E3000D4E907214A6004F1180142688A4201D1AD
:102E4000216A41600022A2620168491E0160606936
:102E5000D4E902128A60D4E902214A60211D426845
:102E60008A4201D1E1684160002262610168491E25
:102E7000016094F82C10012088403149096808430A
:102E80002F490860E16A01EB81012E4A02EB8101C2
:102E90004868A0608268E260211D8268516081609C
:102EA000E16A01EB8101274A02EB81026261E16A7A
:102EB00001EB8101234A52F82110491CE26A02EB1E
:102EC0008202204B43F822101F49E06A0968C96A50
:102ED000884202D301201D4908601848006808B9DB
:102EE000012000E0002000289BD00CB1FFF740FA41
:102EF0001748056865B100BFFFF7B8FE10B10120A3
:102F0000124908606D1E002DF6D10020104908609E
:102F10000E4800E009E0006838B1012630070D498D
:102F20000860BFF34F8FBFF36F8FFFF74FFB304643
:102F300070BD0000580000202C0000202C02002052
:102F400034000020A00100201C00002040000020D0
:102F50003C00002004ED00E0020304050607080918
:102F60000A0B0C0D0E0F10100102000000000000F3
:102F70000000010203040607080900000000010226
:102F800003040000C8CECEF131B5C4C0FACAB7C838
:102F9000CECEF1D5BBD7EED0A1CAA3D3E0C1BF3A04
:102FA0002025643B20C8CECEF132B5C4C0FACAB7E2
:102FB000C8CECEF1D5BBD7EED0A1CAA3D3E0C1BF56
:102FC0003A202564200A0000E82F000800000020B5
:102FD00080000000241D00086830000880000020E8
:102FE000E8490000341D0008000000001000000047
:102FF0000100000000127A00000000000000000044
:1030000000000000000000000000000000000000C0
:1030100000000000000000000000000000000000B0
:1030200000000000000000000000000000000000A0
:10303000000000000000000000000000040000008C
:103040000000000000000000000000000000000080
:103050000000000000000000000000000000000070
:08306000AAAAAAAA00000000C0
:0400000508000131BD
:00000001FF
