:020000040800F2
:10000000080F0020E10100082D150008EB1300087F
:1000100029150008F90200088118000800000000F6
:10002000000000000000000000000000490100087E
:10003000FD020008000000008D01000859150008AD
:10004000FB010008FB010008FB010008FB010008A0
:10005000FB010008FB010008FB010008FB01000890
:10006000FB010008FB010008FB010008FB01000880
:10007000FB010008FB010008FB010008FB01000870
:10008000FB010008FB010008FB010008FB01000860
:10009000FB010008FB010008FB010008FB01000850
:1000A000FB010008FB010008FB010008FB01000840
:1000B000FB010008FB010008FB010008FB01000830
:1000C000FB010008FB010008FB010008FB01000820
:1000D000FB010008FB010008FB010008FB01000810
:1000E000FB010008FB010008FB010008FB01000800
:1000F000FB010008FB010008FB010008FB010008F0
:10010000FB010008FB010008FB010008FB010008DF
:10011000FB010008FB010008D1150008FB010008E5
:10012000FB010008FB010008FB010008FB010008BF
:10013000DFF810D000F078F80048004729190008CF
:10014000AFF30080080F0020224B19680868B0E860
:10015000F00F80F30988BFF36F8F4FF0000080F33A
:1001600011884EF00D0E7047000000000648006830
:10017000006880F3088862B661B6BFF34F8FBFF3A3
:100180006F8F00DF00BF00BF08ED00E0EFF30980D4
:10019000BFF36F8F0F4B1A6820E9F00F106008B59E
:1001A0004FF0BF0080F31188BFF34F8FBFF36F8F05
:1001B00001F0A8FF4FF0000080F31188BDE808406F
:1001C00019680868B0E8F00F80F30988BFF36F8FF3
:1001D000704700BF1C000020EFF30580704700004F
:1001E0000648804706480047FEE7FEE7FEE7FEE7D1
:1001F000FEE7FEE7FEE7FEE7FEE7FEE7CF150008B5
:1002000031010008D2B201E000F8012B491EFBD2F7
:1002100070470022F6E710B513460A460446194611
:10022000FFF7F0FF204610BD064C074D06E0E068E2
:1002300040F0010394E8070098471034AC42F6D32D
:10024000FFF77AFF5C2500087C2500080EB501F059
:10025000E7FD1748174901220023CDE9002102904C
:10026000802215A1164801F0B1FF16490860164812
:10027000164902220023CDE900210290802214A118
:10028000154801F0A3FF15490860154815490322D8
:100290000023CDE900210290802213A1144801F02F
:1002A00095FF1449086001F0CDFD01F0D9FE0EBDA7
:1002B00010030020100100205461736B3100000016
:1002C000C91E0008100000205C0500205C0300200F
:1002D0005461736B32000000F11E0008140000200E
:1002E000A8070020A80500205461736B33000000AC
:1002F000191F00081800002000BFFEE7704772B603
:1003000000BFFEE770B5044600F0C8F90646254672
:10031000681C10B104480078054400BF00F0BEF925
:10032000801BA842FAD370BD080000202DE9F847D1
:10033000024600239C467BE14FF0010808FA03F4D3
:10034000D1F8008008EA0400A0427DD1DFF8F4A2D1
:10035000D1F80480A8EB0A09D0453AD014DCB8F1F2
:10036000030F50D009DCB8F1000F31D0B8F1010F04
:100370001CD0B8F1020F49D120E0B8F1110F18D00C
:10038000B8F1120F42D11EE0B9F5881F25D006DC66
:10039000B9F5803F20D0B9F5801F37D11AE0B9F503
:1003A000001F18D0B9F5041F30D117E0D1F80CC0E8
:1003B0002DE0D1F80C8008F1040C28E0D1F80C8075
:1003C00008F1080C23E0D1F80C8008F10C0C1EE0B9
:1003D00000BF00BF00BF00BF00BF00BFD1F8088052
:1003E000B8F1000F02D14FF0040C0BE0D1F80880F7
:1003F000B8F1010F03D14FF0080C146102E04FF087
:10040000080C546103E04FF0000C00E000BF00BF97
:10041000FF2801D8904601E002F104084646FF2873
:1004200002D84FEA830803E0A3F108084FEA8808DE
:100430004746D6F800804FF00F0909FA07F928EA75
:1004400009080CFA07F900E07AE048EA0908C6F85A
:100450000080D1F8048008F08058B8F1805F6FD137
:1004600000BFDFF8E481D8F8188048F00108DFF811
:10047000D891C9F81880C846D8F8188008F0010843
:10048000CDF8008000BF00BF4FEAB9384FEA9309AA
:1004900058F829504FEA83784FEA18794FF00F083F
:1004A00008FA09F825EA0805DFF8A081424502D1DB
:1004B0004FF0000824E0DFF89881424502D14FF068
:1004C00001081DE0DFF88C81424502D14FF002089F
:1004D00016E0DFF88481424502D14FF003080FE0B7
:1004E000DFF87881424502D14FF0040808E0DFF8D8
:1004F0007081424502D14FF0050801E04FF0060837
:100500004FEA83794FEA197908FA09F848EA0505AC
:10051000DFF850814FEA930948F82950D1F8048058
:1005200008F48018B8F5801F0BD1DFF83C81D8F8AB
:10053000008048EA0008DFF83091C9F800800AE03E
:1005400075E0DFF82481D8F8008028EA0008DFF899
:100550001891C9F80080D1F8048008F40018B8F5A3
:10056000001F0ED1DFF8008108F10408D8F80080E0
:1005700048EA0008DFF8F09009F10409C9F80080A2
:100580000DE0DFF8E48008F10408D8F8008028EADC
:100590000008DFF8D49009F10409C9F80080D1F807
:1005A000048008F40038B8F5003F0ED1DFF8B880B9
:1005B000A8F10408D8F8008048EA0008DFF8A890FD
:1005C000A9F10409C9F800800DE0DFF89C80A8F1CA
:1005D0000408D8F8008028EA0008DFF88C90A9F118
:1005E0000409C9F80080D1F8048008F48038B8F50F
:1005F000803F0ED1DFF87080A8F10808D8F800809D
:1006000048EA0008DFF86090A9F10809C9F80080FD
:100610000DE0DFF85480A8F10808D8F8008028EA37
:100620000008DFF84490A9F10809C9F800805B1CB4
:10063000D1F8008028FA03F8B8F1000F7FF47CAEFF
:10064000BDE8F887000011100010024000080140CA
:10065000000C01400010014000140140001801404E
:10066000001C014008000140080401400246936854
:100670000B400BB1012000E00020704710B5C268AC
:1006800021EA020302EA010443EA0443036110BDC4
:100690000AB1016101E00B04036170470148006881
:1006A00070470000000000200348006803490978F3
:1006B000084401490860704700000020080000203D
:1006C00010B50848006840F0100006490860032093
:1006D00000F0DCF80F2000F007F800F05FF80020D1
:1006E00010BD0000002002402DE9F04188B0044612
:1006F0000027B846002600BF2348C06940F010001C
:100700002149C8610846C06900F01000019000BF8F
:1007100000BF02A903A800F093F9069F1FB900F0DB
:10072000B7F9054602E000F0B3F945001748B5FBFC
:10073000F0F0A0F1010816481649086040F2E731D0
:100740001448C160C0F804800021016181608161AA
:1007500000F02AFC064696B90E4800F059FC064601
:100760006EB9362000F044F8102C07D20022214642
:10077000362000F04DF80848046000E001263046BD
:1007800008B0BDE8F08100000010024040420F00B8
:1007900000100040C80000200400002008B500BF81
:1007A0001148806940F001000F498861084680695E
:1007B00000F00100009000BF00BF00BF0846C06904
:1007C00040F08050C8610846C06900F08050009039
:1007D00000BF00BF00BF0549486820F0E06040F05E
:1007E0000070486000BF08BD0010024000000140DA
:1007F00001460846002809DB00F01F0301229A4049
:1008000043099B0003F1E023C3F8002100BF7047B8
:100810002DE9F05F80460D461646002701F03AF8B4
:10082000074639462A46334601F00700C0F1070A59
:10083000BAF1040F02D94FF0040A01E0C0F1070A2F
:10084000D14600F1040ABAF1070F02D24FF0000AB4
:1008500001E0A0F1030AD4464FF0010A0AFA09FAAE
:10086000AAF1010A0AEA020A0AFA0CFA4FF0010B8D
:100870000BFA0CFBABF1010B0BEA030B4AEA0B047E
:100880002146404601F00EF8BDE8F09F00BF00F0A1
:100890000702064B19684FF6FF031940044B0B4340
:1008A00043EA0221014B196000BF70470CED00E0E4
:1008B0000000FA0570B504460D460CB9012070BD64
:1008C0005A48006800F00700A8420ED25748006856
:1008D00020F007002843554908600846006800F0EA
:1008E0000700A84201D00120E9E7207800F00200CB
:1008F00002281DD1207800F00400042805D14C48BE
:10090000406840F4E0604A494860207800F0080000
:10091000082805D14648406840F460504449486082
:100920004348406820F0F000A1680843404948600F
:10093000207800F0010078B36068012806D13C48B7
:10094000006800F4003090B90120B8E76068022820
:1009500006D13748006800F0007040B90120AEE7CA
:100960003348006800F0020008B90120A7E73048CA
:10097000406820F00300616808432D494860FFF794
:100980008DFE064609E0FFF789FE801B41F28831A3
:10099000884202D9032092E707E02548406800F02A
:1009A0000C006168B0EB810FEDD12048006800F0C9
:1009B0000700A8420ED91D48006820F00700284310
:1009C0001A4908600846006800F00700A84201D0F4
:1009D000012074E7207800F00400042807D11448AF
:1009E000406820F4E060E1680843114948602078DD
:1009F00000F00800082808D10D48406820F4605035
:100A0000216940EAC1000A49486000F061F80849DC
:100A10004968C1F30311074A515CC84006490860A0
:100A200006480068FFF760FE002048E7002002400B
:100A300000100240422500080C00002004000020A5
:100A40000F2202600D4A526802F0030242600B4A14
:100A5000526802F0F0028260084A526802F4E062D2
:100A6000C260064A526802F46052D2080261044A27
:100A7000126802F007020A6070470000001002408E
:100A80000020024001480068704700000C00002070
:100A900000B5FFF7F7FF04494968C1F30221034A93
:100AA000515CC84000BD0000001002405225000803
:100AB00000B5FFF7E7FF04494968C1F3C221034AC3
:100AC000515CC84000BD00000010024052250008E3
:100AD00070B500210022002400230020134D696816
:100AE00001F00C05F5B1042D02D0082D19D101E05B
:100AF0000F4819E00F4DC1F38346AB5D01F480351B
:100B000055B10A4D6D68C5F340450B4E725D084DF9
:100B10005D43B5FBF2F402E0084D03FB05F420460B
:100B200002E000BF024800BF00BF70BD00100240DD
:100B300000127A00302500084025000800093D0019
:100B4000F8B504460CB90120F8BD207800F001008A
:100B5000002878D0F848406800F00C0004280CD039
:100B6000F548406800F00C00082811D1F2484068B0
:100B700000F48030B0F5803F0AD1EF48006800F4FF
:100B8000003000285FD0606800285CD10120DBE7DE
:100B900000BF6068B0F5803F06D1E748006840F4C8
:100BA0008030E549086028E0606858B9E24800688C
:100BB00020F48030E04908600846006820F4802076
:100BC00008601AE06068B0F5A02F0BD1DA48006821
:100BD00040F48020D84908600846006840F480301E
:100BE00008600AE0D448006820F48030D2490860E8
:100BF0000846006820F48020086000BF606888B163
:100C0000FFF74CFD054606E0FFF748FD401B642852
:100C100001D9032098E7C848006800F40030002894
:100C2000F2D010E0FFF73AFD054606E0FFF736FD8B
:100C3000401B642801D9032086E7BF48006800F400
:100C400000300028F2D1207800F00200022857D1AD
:100C5000B948406800F00C0050B1B748406800F057
:100C60000C00082818D1B448406800F4803098B9C6
:100C7000B148006800F0020020B12069012801D0CD
:100C8000012061E7AC48006820F0F800616940EAA3
:100C9000C100A949086033E02069E8B10120A749F3
:100CA0000860FFF7FBFC054606E0FFF7F7FC401B7A
:100CB000022801D9032047E79F48006800F002009E
:100CC0000028F2D09C48006820F0F800616940EAF2
:100CD000C1009949086013E0002098490860FFF7B7
:100CE000DDFC054606E0FFF7D9FC401B022801D9D0
:100CF000032029E79048006800F002000028F2D1A4
:100D0000207800F0080008282DD1A069B8B1012092
:100D10008B490860FFF7C2FC054606E0FFF7BEFC02
:100D2000401B022801D903200EE78348406A00F0E7
:100D300002000028F2D0012000F0FAFB13E00020AE
:100D40007F490860FFF7AAFC054606E0FFF7A6FC0E
:100D5000401B022801D90320F6E67748406A00F0DC
:100D600002000028F2D1207800F00400042873D19A
:100D700000277148C06900F0805070B900BF6E480C
:100D8000C06940F080506C49C8610846C06900F0F5
:100D90008050009000BF00BF01276A48006800F43F
:100DA0008070B0B96748006840F480706549086099
:100DB000FFF774FC054606E0FFF770FC401B642853
:100DC00001D90320C0E65F48006800F48070002865
:100DD000F2D000BFE068012806D15748006A40F011
:100DE00001005549086227E0E06858B95248006A96
:100DF00020F00100504908620846006A20F0040013
:100E0000086219E0E06805280BD14B48006A40F001
:100E10000400494908620846006A40F0010008627F
:100E20000AE04548006A20F001004349086208468C
:100E3000006A20F00400086200BFE068A0B1FFF77C
:100E40002DFC054609E0FFF729FC401B41F28831E3
:100E5000884202D9032077E622E03748006A00F092
:100E600002000028EFD012E0FFF718FC054608E06A
:100E7000FFF714FC401B41F28831884201D903205E
:100E800062E62D48006A00F002000028F0D1012F30
:100E900005D12948C06920F080502749C86100BFAA
:100EA000E069C8B32448406800F00C00082860D00E
:100EB000E069022848D1002020490866FFF7EEFBD0
:100EC000054606E0FFF7EAFB401B022801D9032094
:100ED0003AE61948006800F000700028F2D1206A54
:100EE000B0F5803F07D11448406820F40030A16875
:100EF000084311494860D4E9080108430E4949688C
:100F000021F4741108430C49486001200B4908661C
:100F1000FFF7C4FB054607E03DE0FFF7BFFB401BC2
:100F2000022801D903200FE60348006800F0007092
:100F30000028F2D02FE000000010024000004242E2
:100F40008004424200700040002014490866FFF708
:100F5000A5FB054606E0FFF7A1FB401B022801D9CF
:100F60000320F1E50E48006800F000700028F2D17F
:100F700011E0E069012800D1E6E50948466806F479
:100F80008031206A814204D106F47011606A814286
:100F900001D00120D8E50020D6E500000000424243
:100FA000001002407047704710B504460CB901208C
:100FB00010BD94F83D0028B9002084F83C0020467C
:100FC00000F025F8022084F83D00211D206800F083
:100FD00007FB012084F8460000BF84F83E00012191
:100FE0003F200155402001554120015500BF00BF61
:100FF000012084F84200432001554420015545203A
:10100000015500BF012084F83D000020D0E7704763
:10101000014691F83D00012801D0012070470220CF
:1010200081F83D000868C06840F001000B68D86096
:10103000164B0868984213D0154B086898420FD099
:101040000868B0F1804F0BD0124B0868984207D067
:10105000114B0868984203D0104B086898420CD195
:101060000868806800F00702062A0CD0086800684B
:1010700040F001000B68186005E00868006840F067
:1010800001000B6818600020C8E70000002C014038
:10109000003401400004004000080040000C004003
:1010A000704770B504462068C5682068066906F078
:1010B0000200022819D105F00200022815D1401FB4
:1010C00021680861012020772068806900F0030012
:1010D00018B12046FFF7E4FF05E0204600F097F83E
:1010E000204600F095F80020207706F00400042840
:1010F00019D105F00400042815D1C0432168086106
:10110000022020772068806900F4407018B12046E2
:10111000FFF7C6FF05E0204600F079F8204600F012
:1011200077F80020207706F00800082819D105F08C
:101130000800082815D1C0432168086104202077E1
:101140002068C06900F0030018B12046FFF7A8FF2F
:1011500005E0204600F05BF8204600F059F800203A
:10116000207706F01000102819D105F01000102883
:1011700015D1C04321680861082020772068C06924
:1011800000F4407018B12046FFF78AFF05E02046C2
:1011900000F03DF8204600F03BF80020207706F0F4
:1011A000010048B105F0010030B16FF00100216885
:1011B0000861204600F02EF806F08000802809D152
:1011C00005F08000802805D1C043216808612046D1
:1011D000FFF7E8FE06F04000402809D105F0400086
:1011E000402805D1C04321680861204600F01EF860
:1011F00006F02000202809D105F02000202805D184
:10120000C043216808612046FFF7CDFE70BD7047DE
:101210007047000010B5044603492068884201D198
:10122000FFF742FA10BD000000100040704710B5F3
:1012300004460CB9012010BDA06900B100E000BF58
:1012400094F8410028B9002084F84000204600F0BE
:1012500029F8242084F841002068C06820F4005058
:101260002168C860204600F047FA2068006920F431
:101270009040216808612068406920F02A002168B8
:1012800048612068C06840F400502168C8600020B0
:101290006064202084F8410084F8420000206063EC
:1012A00000BFC8E710B586B0044600200290039046
:1012B000049005901A49206888422ED100BF194831
:1012C000806940F48040174988610846806900F4CD
:1012D0008040019000BF00BF00BF0846806940F019
:1012E000040088610846806900F00400019000BF96
:1012F00000BF48150290022003900320059002A928
:101300000948FFF713F84FF4806002900020039023
:10131000049002A90448FFF709F806B010BD0000C8
:101320000038014000100240000801402DE9F84F4C
:1013300004460E46174699464FF0000A94F84100BD
:10134000202850D106B117B90120BDE8F88F002040
:101350006064212084F84100FFF7A0F98246A78449
:10136000E784A068B0F5805F04D1206910B900253A
:10137000B04602E035464FF000081EE0534600221A
:1013800080212046CDF8009000F034FA20B12020D2
:1013900084F841000320D8E745B9B8F80000C0F34D
:1013A00008002168486008F1020803E028782168F5
:1013B00048606D1CE08C401EE084E08C0028DDD18C
:1013C0005346002240212046CDF8009000F012FA4A
:1013D00020B1202084F841000320B6E7202084F8C3
:1013E00041000020B1E70220AFE700BFFEE70000A8
:1013F00010B5044621460248FFF740F910BD000031
:101400000008014010B54FF480710848FFF72EF92D
:1014100050B90A20FEF776FF4FF480710348FFF7BA
:1014200025F908B9012010BD0020FCE7001C01408F
:1014300000B585B00020019002900390049000BF99
:101440002848806940F01000264988610846806974
:1014500000F01000009000BF00BF00BF0846806988
:1014600040F0800088610846806900F080000090AC
:1014700000BF00BF00BF0846806940F004008861DB
:101480000846806900F00400009000BF00BF012200
:1014900040F203111448FFF7FBF84FF4407001903D
:1014A000002002900120039001A91048FEF73EFFA2
:1014B0004FF440600190002002900220039001A9A7
:1014C0000A48FEF733FF40F203100190012002901A
:1014D000002003900320049001A90348FEF726FF93
:1014E00005B000BD0010024000080140001C014092
:1014F00010B50B480B4908604FF4E13048600021FB
:1015000008488160C16001610C2141610021816155
:10151000C161FFF78CFE08B1FEF7F1FE10BD0000BF
:10152000003801408000002000BFFEE700BFFEE75A
:1015300008B508490968C9084FF47A72B1FBF2F19D
:101540004143009100BF00BF00994A1E009200294C
:10155000F9D108BD0C00002010B500F063FE012891
:1015600001D000F019FE10BD00B58FB0282105A8EC
:10157000FEF74FFE14216846FEF74BFE0120059052
:1015800000040690002007900120099002200C9092
:10159000C1030D914FF4E0110E9105A8FFF7D0FAA9
:1015A00008B1FEF7ACFE0F20009002200190002051
:1015B00002904FF48060039000200490022168465E
:1015C000FFF778F908B1FEF79AFE0FB000BD70473B
:1015D00010B50248FFF765FD10BD0000C8000020EF
:1015E00010B50268244B98420ED0244B98420BD081
:1015F000B0F1804F08D0224B984205D0214B984241
:1016000002D0214B984203D122F070024B681A435A
:10161000194B98420ED0194B98420BD0B0F1804F25
:1016200008D0174B984205D0164B984202D0164B63
:10163000984203D122F44072CB681A4322F080030F
:101640004C6943EA040202608B68C3620B688362E0
:10165000094B984202D0094B984201D10B690363B0
:1016600001234361036903F001031BB1036923F004
:101670000103036110BD0000002C01400034014053
:101680000004004000080040000C004000BF00BF04
:1016900002680C3252E8002F22F4907102680C327A
:1016A00042E80013002BF3D100BF00BF00BF026867
:1016B000143252E8002F22F001010268143242E88D
:1016C0000013002BF3D100BF016B01290ED100BF25
:1016D00000BF02680C3252E8002F22F010010268AD
:1016E0000C3242E80013002BF3D100BF202180F818
:1016F000421000210163704770B5044621680969F2
:1017000021F44051E2681143226811612269A16805
:101710001143626941EA02052168C96841F20C621D
:10172000914329432268D1602168496921F44071BD
:10173000A2691143226851612D4A2168914202D168
:10174000FFF7B6F901E0FFF7A3F900EBC00101EBE9
:10175000001162689200B1FBF2F100EBC00202EBF3
:10176000001263689B00B2FBF3F26423B2FBF3F256
:1017700002EBC20303EB0212A1EB8201322202EB65
:1017800001116422B1FBF2F101F0F00100EBC002A3
:1017900002EB001263689B00B2FBF3F26423B2FB1E
:1017A000F3F201EB021200EBC00101EB00116368E0
:1017B0009B00B1FBF3F100EBC00303EB0013666881
:1017C000B600B3FBF6F36426B3FBF6F303EBC306F4
:1017D00006EB0313A1EB8301322303EB0111642316
:1017E000B1FBF3F101F00F0111442268916070BD6B
:1017F000003801402DE9F84304460D461746984647
:10180000089E31E0701C70B3FEF748FFA0EB0800A3
:10181000B04200D816B90320BDE8F8832068C0683C
:1018200000F00400F8B1802D1ED0402D1CD020689F
:101830000068C0F3C000B0B100BF00200090206875
:101840000068009020684068009000BF00BF2046FC
:10185000FFF71CFF0820606400BF002084F84000F0
:1018600000BF0120D8E7FFE7206800682840A842B1
:1018700001D1012000E00020B842C3D00020CBE716
:1018800000BFFEE7014A024900F02FB80D19000819
:101890007C00002002480068C0F30220704700006E
:1018A0000CED00E010B5002804DB0A07130E054A12
:1018B000135406E00A07140E034A00F00F031B1F1F
:1018C000D45410BD00E400E018ED00E002E008C8C8
:1018D000121F08C1002AFAD170477047002001E0AA
:1018E00001C1121F002AFBD170472DE9F0411646B5
:1018F0000F460446002503E03946B047641C6D1CC2
:1019000020780028F8D12846BDE8F08113B50C46B0
:101910004FF6FF73012269460248FFF707FD009862
:101920001CBD000080000020FEF7CAFEFFF71CFE71
:10193000FFF77EFDFFF7DCFD04A0FFF7A3FFFEF736
:1019400085FC09A0FFF79EFF00BFFEE746726565B4
:1019500052544F53204578616D706C65205374610B
:1019600072743A200A0000004672656552544F5363
:10197000204578616D706C6520456E643A200A00E0
:101980002DE9F04105460E462648076826480068BE
:10199000001D00F0EFF950B92348006890F82C10B2
:1019A0000120884021490968814320480160681C62
:1019B000D8B9D6B11E4948681B49096888601A49D8
:1019C00082680968CA6018490968091D82685160FF
:1019D00015490968091D8160154A134909684A615A
:1019E00011460968491C11601AE07C190E4800680C
:1019F0004460BC4207D20C480168091D0D480068CC
:101A000000F0E8F90CE008480168091D0A48006880
:101A100000F0E0F909480068844201D207480460F8
:101A2000BDE8F081300000201C00002034000020C0
:101A3000F40A002024000020200000204C00002098
:101A400010B5044600F0ECF92F480068401C2E4900
:101A500008602E48006840B92C48046008460068B9
:101A600001280DD100F0E8F80AE02948006838B9EB
:101A700026480068C06AE16A884201D823480460A9
:101A800024480068401C2349086094F82C10012069
:101A900088402149096808431F490860E16A01EB51
:101AA00081011E4A02EB81014868A0608268E26001
:101AB000211D826851608160E16A01EB8101174A52
:101AC00002EB81026261E16A01EB8101134A52F883
:101AD0002110491CE26A02EB8202104B43F82210EB
:101AE00000F0B0F90A48006868B108480068C06AA8
:101AF000E16A884207D24FF0805009490860BFF37D
:101B00004F8FBFF36F8F10BD2C0000201C000020F2
:101B1000380000204800002034000020400A002047
:101B200004ED00E010B516E000F07AF90C48C0684A
:101B3000C468201D00F01EF90A480068401E0949CB
:101B4000086009480068401E0749086000F07AF9FB
:101B5000204600F00BF8044800680028E4D110BDCE
:101B6000E00A00202C0000202800002010B50446C8
:101B700094F8490030B9206B00F074F9204600F069
:101B800071F906E094F84900012802D1204600F0DE
:101B900069F910BD00BFFFF7C5FF064800680128BE
:101BA000F9D94FF0805004490860BFF34F8FBFF35D
:101BB0006F8FF0E7400A002004ED00E02DE9FF5FA1
:101BC00080460E469146DDE90E7A109CA9F101008F
:101BD000216B01EB800B2BF0070B7EB1002507E09A
:101BE000715D04F134004155705D00B902E06D1C77
:101BF000102DF5D300BF002143200155052F00D340
:101C00000427E762201D00F0E2F804F1180000F05C
:101C1000DEF82461C7F10500A061646241465846C0
:101C2000039A00F095F82060BAF1000F01D0CAF8CD
:101C30000040BDE8FF9F000010B5002407E004EB62
:101C400084010F4A02EB810000F0B4F8641C052CFB
:101C5000F5D30C4800F0AEF80B4800F0ABF80B4899
:101C600000F0A8F80A4800F0A5F80A4800F0A2F829
:101C700004480949086004480849086010BD00008C
:101C8000400A0020A40A0020B80A0020CC0A002044
:101C9000E00A0020F40A0020200000202400002098
:101CA00010B50146164800E0006803688B42FBD37C
:101CB0000246436813448B4204D143684C68234472
:101CC000436001460A464B6813440468A34211D19D
:101CD0000C4C03682468A34208D04B68046864680D
:101CE00023444B6003681B680B6005E0054B1B68D1
:101CF0000B6001E003680B60884200D0016010BDFA
:101D00005C0000206400002009480068006808B9F1
:101D1000012000E0002020B14FF0FF3005490860AD
:101D200005E003480068C068006802490860704721
:101D3000200000204C00002000BFBF2080F311884D
:101D4000BFF34F8FBFF36F8F00BF00BFFEE70000F0
:101D5000001F4FF080730360001F21F00103036038
:101D6000001F034B036014380260203870470000E6
:101D7000391D000801460A69D1E901309860D1E9AE
:101D8000010358605068884201D188685060002083
:101D900008611068401E106010687047034B0360B4
:101DA000034B0B608023136070470000F407002092
:101DB0004008002000F1080141604FF0FF318160D0
:101DC00000F10801C160016100210160704700213C
:101DD0000161704710B502460B685C1C0CB91069B4
:101DE00007E002F1080000E04068446824689C4273
:101DF000FAD944684C604C68A160886041600A610F
:101E00001468641C146010BD42684A6093688B605B
:101E1000936859609160086103685B1C03607047B8
:101E200000BFBF2080F31188BFF34F8FBFF36F8FC8
:101E300000BF03480068401C01490860704700006B
:101E40007800002006480068401E054908600846E2
:101E5000006820B9002080F3118800BF00BF7047E0
:101E60007800002070B506463546E6B1083D2C46A0
:101E70006068C00FB8B12068A8B9606820F0004061
:101E8000606000F037F9084960680968084406494D
:101E900008602046FFF704FF04480068401C03491F
:101EA000086000F097FA70BD680000207400002000
:101EB00000204FF0E0210861886102484861072056
:101EC000086170473F19010005A0FFF7DBFC06E041
:101ED0000120FFF78DFA4FF4FA7000F03DF8F7E7B4
:101EE000C8CECEF131C6F4B6AF2E2E2E0A000000B9
:101EF00005A0FFF7C7FC06E00220FFF779FA4FF4D0
:101F0000FA7000F029F8F7E7C8CECEF132C6F4B681
:101F1000AF2E2E2E0A0000000AA0FFF7B3FC0FE040
:101F2000FFF770FA48B10B48006830B10948006803
:101F300000F02CF8002007490860642000F00CF83D
:101F4000EEE70000C8CECEF133C6F4B6AF2E2E2E8B
:101F50000A0000001000002070B50446002544B1BE
:101F600000F0C8F800212046FFF70AFD00F032FA21
:101F700005463DB94FF0805003490860BFF34F8FCD
:101F8000BFF36F8F70BD000004ED00E070B5054633
:101F9000FFF746FF15B92948006800E028460446C7
:101FA000201DFFF7E7FE78B9E06A00EB80002449C6
:101FB00051F8200040B994F82C10012088402149A4
:101FC000096881431F480160A06A18B104F1180034
:101FD000FFF7D0FE1C480068401C1B4908601748EA
:101FE0000068844209D1211D1848FFF70DFF1848E9
:101FF0000068401C1649086006E016480068401E4C
:1020000014490860FFF780FEFFF71CFF0B480068CB
:10201000844202D02046FFF7A9FD0F48006858B15E
:1020200006480068844207D14FF080500B49086091
:10203000BFF34F8FBFF36F8F70BD00001C000020F7
:10204000400A00203400002048000020E00A002060
:10205000280000202C0000203800002004ED00E0C3
:1020600010B586B000200590049003AA04A905A825
:10207000FFF794FE0022DDE904101346CDE90021AC
:10208000029014A11548039A00F0A0F814490860C2
:102090000846006808B1012400E00024012C14D196
:1020A00000BFBF2080F31188BFF34F8FBFF36F8F46
:1020B00000BF4FF0FF300B49086001200A4908605B
:1020C00000200A49086000F04DF80948006806B091
:1020D00010BD000049444C4500000000951B00085D
:1020E000500000204C00002038000020300000206C
:1020F0005400002002480068401C014908607047F5
:10210000580000201248006818B1012011490860E9
:102110001DE000200F4908600F480068B0FA80F009
:10212000C0F11F0101EB81020C4B03EB82004268FE
:102130005268426000F108024368934202D142684B
:10214000526842604268D268054B1A6000BF70470F
:10215000580000204000002034000020400A0020E9
:102160001C00002010B50A48006840F47F000849B0
:1021700008600846006840F07F400860FFF798FE5E
:10218000002004490860FDF7F1FF002010BD0000A9
:1021900020ED00E07800002010B500BFBF2080F3E4
:1021A0001188BFF34F8FBFF36F8F00BF00F04AF865
:1021B00018B14FF080500449086000BF002080F340
:1021C000118800BF10BD000004ED00E02DE9F04FC4
:1021D00085B00746884691469A46DDE90EB6109CC2
:1021E000CCB1C6B125464C212846FEF712F82E6325
:1021F000022085F84900002004A953464A46CDE94B
:1022000000B1CDE9025041463846FFF7D7FC2846D9
:10221000FFF716FC01E000200490049805B0BDE82B
:10222000F08F00000549096809B9012005E004495B
:10223000096809B9022000E000207047380000203A
:10224000580000202DE9F041002757480068002879
:102250007ED156480068451C544805608DB95448E5
:10226000D0F8008053480068514908605148C0F8D0
:10227000008051480068401C4F490860FFF744FD4A
:1022800000BF4E480068854276D300BF48480068CA
:10229000006808B9012000E0002020B14FF0FF30B5
:1022A0004649086067E042480068C068C4686668DC
:1022B000B54202D2414806605DE06069D4E902128D
:1022C0008A60D4E902214A60211D42688A4201D114
:1022D000E1684160002262610168491E0160A06AF4
:1022E00098B1A06AD4E907128A60D4E907214A604C
:1022F00004F1180142688A4201D1216A416000223A
:10230000A2620168491E016000BF94F82C100120F0
:1023100088402B490968084329490860E16A01EBB4
:102320008101284A02EB81014868A0608268E2606E
:10233000211D826851608160E16A01EB8101214ABF
:1023400002EB81026261E16A01EB81011D4A00E05A
:1023500022E052F82110491CE26A02EB8202194B7A
:1023600043F822101849E06A0968C96A88428DD981
:1023700001278BE700E000BF13480068C06A00EB4C
:102380008000104951F82000012800D901270F488A
:10239000006800B1012704E00D480068401C0C49AA
:1023A00008603846BDE8F081580000203000002069
:1023B0002000002024000020440000204C000020C9
:1023C00034000020400A00201C00002040000020B3
:1023D0003C00002070B500240026FFF721FD4B488B
:1023E0000068401E494908600846006800287DD101
:1023F00047480068002879D05BE04648C068C46858
:10240000A06AD4E907128A60D4E907214A6004F17E
:10241000180142688A4201D1216A41600022A26209
:102420000168491E01606069D4E902128A60D4E93A
:1024300002214A60211D42688A4201D1E16841605F
:10244000002262610168491E016094F82C1001208D
:1024500088403149096808432F490860E16A01EB67
:1024600081012E4A02EB81014868A0608268E26027
:10247000211D826851608160E16A01EB8101274A78
:1024800002EB81026261E16A01EB8101234A52F8A9
:102490002110491CE26A02EB8202204B43F8221011
:1024A0001F49E06A0968C96A884202D301201D49B0
:1024B00008601848006808B9012000E000200028E2
:1024C0009BD00CB1FFF720FC1748056865B100BF31
:1024D000FFF7B8FE10B10120124908606D1E002DF3
:1024E000F6D10020104908600E4800E009E00068BD
:1024F00038B1012630070D490860BFF34F8FBFF395
:102500006F8FFFF79FFC304670BD00005800002021
:102510002C000020CC0A002034000020400A0020BB
:102520001C000020400000203C00002004ED00E0E2
:1025300002030405060708090A0B0C0D0E0F101004
:102540000102000000000000000001020304060771
:102550000809000000000102030400007C250008B7
:102560000000002080000000CC180008FC250008B6
:1025700080000020880E0000DC1800080000000029
:10258000100000000100000000127A0000000000AE
:10259000000000000000000000000000000000003B
:1025A000000000000000000000000000000000002B
:1025B000000000000000000000000000000000001B
:1025C000000000000000000000000000000000000B
:1025D00004000000000000000000000000000000F7
:1025E00000000000000000000000000000000000EB
:0C25F00000000000AAAAAAAA0000000037
:0400000508000131BD
:00000001FF
